{
  "_format": "hh-sol-artifact-1",
  "contractName": "ReentrancyAttacker",
  "sourceName": "contracts/ReentrancyAttacker.sol",
  "abi": [
    {
      "inputs": [
        {
          "internalType": "address",
          "name": "_nftTicket",
          "type": "address"
        }
      ],
      "stateMutability": "nonpayable",
      "type": "constructor"
    },
    {
      "inputs": [
        {
          "internalType": "uint256",
          "name": "tokenId",
          "type": "uint256"
        }
      ],
      "name": "attack",
      "outputs": [],
      "stateMutability": "payable",
      "type": "function"
    },
    {
      "inputs": [],
      "name": "attacking",
      "outputs": [
        {
          "internalType": "bool",
          "name": "",
          "type": "bool"
        }
      ],
      "stateMutability": "view",
      "type": "function"
    },
    {
      "inputs": [],
      "name": "nftTicket",
      "outputs": [
        {
          "internalType": "contract NFTTicket",
          "name": "",
          "type": "address"
        }
      ],
      "stateMutability": "view",
      "type": "function"
    },
    {
      "inputs": [
        {
          "internalType": "address",
          "name": "",
          "type": "address"
        },
        {
          "internalType": "address",
          "name": "",
          "type": "address"
        },
        {
          "internalType": "uint256",
          "name": "",
          "type": "uint256"
        },
        {
          "internalType": "bytes",
          "name": "",
          "type": "bytes"
        }
      ],
      "name": "onERC721Received",
      "outputs": [
        {
          "internalType": "bytes4",
          "name": "",
          "type": "bytes4"
        }
      ],
      "stateMutability": "pure",
      "type": "function"
    },
    {
      "inputs": [
        {
          "internalType": "uint256",
          "name": "tokenId",
          "type": "uint256"
        },
        {
          "internalType": "uint256",
          "name": "price",
          "type": "uint256"
        }
      ],
      "name": "resellTicket",
      "outputs": [],
      "stateMutability": "nonpayable",
      "type": "function"
    },
    {
      "stateMutability": "payable",
      "type": "receive"
    }
  ],
  "bytecode": "0x608060405234801561001057600080fd5b506040516108ae3803806108ae833981810160405281019061003291906100db565b806000806101000a81548173ffffffffffffffffffffffffffffffffffffffff021916908373ffffffffffffffffffffffffffffffffffffffff16021790555050610108565b600080fd5b600073ffffffffffffffffffffffffffffffffffffffff82169050919050565b60006100a88261007d565b9050919050565b6100b88161009d565b81146100c357600080fd5b50565b6000815190506100d5816100af565b92915050565b6000602082840312156100f1576100f0610078565b5b60006100ff848285016100c6565b91505092915050565b610797806101176000396000f3fe60806040526004361061004e5760003560e01c8063150b7a0214610141578063348e99131461017e5780633c0bbcd9146101a757806364dd891a146101d2578063b1b916e9146101ee5761013c565b3661013c57600060149054906101000a900460ff1680156100a7575060008060009054906101000a900473ffffffffffffffffffffffffffffffffffffffff1673ffffffffffffffffffffffffffffffffffffffff1631115b1561013a5760008054906101000a900473ffffffffffffffffffffffffffffffffffffffff1673ffffffffffffffffffffffffffffffffffffffff166367dd74ca6000806040518363ffffffff1660e01b81526004016101079190610409565b6000604051808303818588803b15801561012057600080fd5b505af1158015610134573d6000803e3d6000fd5b50505050505b005b600080fd5b34801561014d57600080fd5b506101686004803603810190610163919061051d565b610219565b60405161017591906105e0565b60405180910390f35b34801561018a57600080fd5b506101a560048036038101906101a091906105fb565b61022e565b005b3480156101b357600080fd5b506101bc6102bf565b6040516101c99190610656565b60405180910390f35b6101ec60048036038101906101e79190610671565b6102d2565b005b3480156101fa57600080fd5b50610203610396565b60405161021091906106f3565b60405180910390f35b600063150b7a0260e01b905095945050505050565b60008054906101000a900473ffffffffffffffffffffffffffffffffffffffff1673ffffffffffffffffffffffffffffffffffffffff1663348e991383836040518363ffffffff1660e01b815260040161028992919061071d565b600060405180830381600087803b1580156102a357600080fd5b505af11580156102b7573d6000803e3d6000fd5b505050505050565b600060149054906101000a900460ff1681565b6001600060146101000a81548160ff02191690831515021790555060008054906101000a900473ffffffffffffffffffffffffffffffffffffffff1673ffffffffffffffffffffffffffffffffffffffff166367dd74ca34836040518363ffffffff1660e01b81526004016103479190610746565b6000604051808303818588803b15801561036057600080fd5b505af1158015610374573d6000803e3d6000fd5b505050505060008060146101000a81548160ff02191690831515021790555050565b60008054906101000a900473ffffffffffffffffffffffffffffffffffffffff1681565b6000819050919050565b6000819050919050565b6000819050919050565b60006103f36103ee6103e9846103ba565b6103ce565b6103c4565b9050919050565b610403816103d8565b82525050565b600060208201905061041e60008301846103fa565b92915050565b600080fd5b600080fd5b600073ffffffffffffffffffffffffffffffffffffffff82169050919050565b60006104598261042e565b9050919050565b6104698161044e565b811461047457600080fd5b50565b60008135905061048681610460565b92915050565b610495816103c4565b81146104a057600080fd5b50565b6000813590506104b28161048c565b92915050565b600080fd5b600080fd5b600080fd5b60008083601f8401126104dd576104dc6104b8565b5b8235905067ffffffffffffffff8111156104fa576104f96104bd565b5b602083019150836001820283011115610516576105156104c2565b5b9250929050565b60008060008060006080868803121561053957610538610424565b5b600061054788828901610477565b955050602061055888828901610477565b9450506040610569888289016104a3565b935050606086013567ffffffffffffffff81111561058a57610589610429565b5b610596888289016104c7565b92509250509295509295909350565b60007fffffffff0000000000000000000000000000000000000000000000000000000082169050919050565b6105da816105a5565b82525050565b60006020820190506105f560008301846105d1565b92915050565b6000806040838503121561061257610611610424565b5b6000610620858286016104a3565b9250506020610631858286016104a3565b9150509250929050565b60008115159050919050565b6106508161063b565b82525050565b600060208201905061066b6000830184610647565b92915050565b60006020828403121561068757610686610424565b5b6000610695848285016104a3565b91505092915050565b60006106b96106b46106af8461042e565b6103ce565b61042e565b9050919050565b60006106cb8261069e565b9050919050565b60006106dd826106c0565b9050919050565b6106ed816106d2565b82525050565b600060208201905061070860008301846106e4565b92915050565b610717816103c4565b82525050565b6000604082019050610732600083018561070e565b61073f602083018461070e565b9392505050565b600060208201905061075b600083018461070e565b9291505056fea2646970667358221220258c9de3dfc7c4bfa57f3ab16e0e9047019cb5ea465e8d8b3c203406511cea1264736f6c63430008140033",
  "linkReferences": {},
  "deployedLinkReferences": {}
}