{
  "_format": "hh-sol-artifact-1",
  "contractName": "TicketManager",
  "sourceName": "contracts/TicketManager.sol",
  "abi": [
    {
      "inputs": [
        {
          "internalType": "address",
          "name": "admin",
          "type": "address"
        },
        {
          "internalType": "address",
          "name": "defaultRoyaltyRecipient",
          "type": "address"
        },
        {
          "internalType": "uint96",
          "name": "defaultRoyaltyBps",
          "type": "uint96"
        }
      ],
      "stateMutability": "nonpayable",
      "type": "constructor"
    },
    {
      "inputs": [],
      "name": "AccessControlBadConfirmation",
      "type": "error"
    },
    {
      "inputs": [
        {
          "internalType": "address",
          "name": "account",
          "type": "address"
        },
        {
          "internalType": "bytes32",
          "name": "neededRole",
          "type": "bytes32"
        }
      ],
      "name": "AccessControlUnauthorizedAccount",
      "type": "error"
    },
    {
      "inputs": [
        {
          "internalType": "address",
          "name": "sender",
          "type": "address"
        },
        {
          "internalType": "uint256",
          "name": "tokenId",
          "type": "uint256"
        },
        {
          "internalType": "address",
          "name": "owner",
          "type": "address"
        }
      ],
      "name": "ERC721IncorrectOwner",
      "type": "error"
    },
    {
      "inputs": [
        {
          "internalType": "address",
          "name": "operator",
          "type": "address"
        },
        {
          "internalType": "uint256",
          "name": "tokenId",
          "type": "uint256"
        }
      ],
      "name": "ERC721InsufficientApproval",
      "type": "error"
    },
    {
      "inputs": [
        {
          "internalType": "address",
          "name": "approver",
          "type": "address"
        }
      ],
      "name": "ERC721InvalidApprover",
      "type": "error"
    },
    {
      "inputs": [
        {
          "internalType": "address",
          "name": "operator",
          "type": "address"
        }
      ],
      "name": "ERC721InvalidOperator",
      "type": "error"
    },
    {
      "inputs": [
        {
          "internalType": "address",
          "name": "owner",
          "type": "address"
        }
      ],
      "name": "ERC721InvalidOwner",
      "type": "error"
    },
    {
      "inputs": [
        {
          "internalType": "address",
          "name": "receiver",
          "type": "address"
        }
      ],
      "name": "ERC721InvalidReceiver",
      "type": "error"
    },
    {
      "inputs": [
        {
          "internalType": "address",
          "name": "sender",
          "type": "address"
        }
      ],
      "name": "ERC721InvalidSender",
      "type": "error"
    },
    {
      "inputs": [
        {
          "internalType": "uint256",
          "name": "tokenId",
          "type": "uint256"
        }
      ],
      "name": "ERC721NonexistentToken",
      "type": "error"
    },
    {
      "inputs": [],
      "name": "ReentrancyGuardReentrantCall",
      "type": "error"
    },
    {
      "anonymous": false,
      "inputs": [
        {
          "indexed": true,
          "internalType": "address",
          "name": "owner",
          "type": "address"
        },
        {
          "indexed": true,
          "internalType": "address",
          "name": "approved",
          "type": "address"
        },
        {
          "indexed": true,
          "internalType": "uint256",
          "name": "tokenId",
          "type": "uint256"
        }
      ],
      "name": "Approval",
      "type": "event"
    },
    {
      "anonymous": false,
      "inputs": [
        {
          "indexed": true,
          "internalType": "address",
          "name": "owner",
          "type": "address"
        },
        {
          "indexed": true,
          "internalType": "address",
          "name": "operator",
          "type": "address"
        },
        {
          "indexed": false,
          "internalType": "bool",
          "name": "approved",
          "type": "bool"
        }
      ],
      "name": "ApprovalForAll",
      "type": "event"
    },
    {
      "anonymous": false,
      "inputs": [
        {
          "indexed": false,
          "internalType": "uint256",
          "name": "_fromTokenId",
          "type": "uint256"
        },
        {
          "indexed": false,
          "internalType": "uint256",
          "name": "_toTokenId",
          "type": "uint256"
        }
      ],
      "name": "BatchMetadataUpdate",
      "type": "event"
    },
    {
      "anonymous": false,
      "inputs": [
        {
          "indexed": false,
          "internalType": "uint256",
          "name": "_tokenId",
          "type": "uint256"
        }
      ],
      "name": "MetadataUpdate",
      "type": "event"
    },
    {
      "anonymous": false,
      "inputs": [
        {
          "indexed": true,
          "internalType": "bytes32",
          "name": "role",
          "type": "bytes32"
        },
        {
          "indexed": true,
          "internalType": "bytes32",
          "name": "previousAdminRole",
          "type": "bytes32"
        },
        {
          "indexed": true,
          "internalType": "bytes32",
          "name": "newAdminRole",
          "type": "bytes32"
        }
      ],
      "name": "RoleAdminChanged",
      "type": "event"
    },
    {
      "anonymous": false,
      "inputs": [
        {
          "indexed": true,
          "internalType": "bytes32",
          "name": "role",
          "type": "bytes32"
        },
        {
          "indexed": true,
          "internalType": "address",
          "name": "account",
          "type": "address"
        },
        {
          "indexed": true,
          "internalType": "address",
          "name": "sender",
          "type": "address"
        }
      ],
      "name": "RoleGranted",
      "type": "event"
    },
    {
      "anonymous": false,
      "inputs": [
        {
          "indexed": true,
          "internalType": "bytes32",
          "name": "role",
          "type": "bytes32"
        },
        {
          "indexed": true,
          "internalType": "address",
          "name": "account",
          "type": "address"
        },
        {
          "indexed": true,
          "internalType": "address",
          "name": "sender",
          "type": "address"
        }
      ],
      "name": "RoleRevoked",
      "type": "event"
    },
    {
      "anonymous": false,
      "inputs": [
        {
          "indexed": true,
          "internalType": "uint256",
          "name": "tokenId",
          "type": "uint256"
        },
        {
          "indexed": true,
          "internalType": "address",
          "name": "seller",
          "type": "address"
        },
        {
          "indexed": false,
          "internalType": "uint256",
          "name": "price",
          "type": "uint256"
        }
      ],
      "name": "TicketListed",
      "type": "event"
    },
    {
      "anonymous": false,
      "inputs": [
        {
          "indexed": true,
          "internalType": "uint256",
          "name": "tokenId",
          "type": "uint256"
        }
      ],
      "name": "TicketListingCancelled",
      "type": "event"
    },
    {
      "anonymous": false,
      "inputs": [
        {
          "indexed": true,
          "internalType": "uint256",
          "name": "tokenId",
          "type": "uint256"
        },
        {
          "indexed": true,
          "internalType": "address",
          "name": "to",
          "type": "address"
        },
        {
          "indexed": true,
          "internalType": "uint256",
          "name": "eventId",
          "type": "uint256"
        }
      ],
      "name": "TicketMinted",
      "type": "event"
    },
    {
      "anonymous": false,
      "inputs": [
        {
          "indexed": true,
          "internalType": "uint256",
          "name": "tokenId",
          "type": "uint256"
        },
        {
          "indexed": true,
          "internalType": "address",
          "name": "scanner",
          "type": "address"
        }
      ],
      "name": "TicketScanned",
      "type": "event"
    },
    {
      "anonymous": false,
      "inputs": [
        {
          "indexed": true,
          "internalType": "uint256",
          "name": "tokenId",
          "type": "uint256"
        },
        {
          "indexed": true,
          "internalType": "address",
          "name": "buyer",
          "type": "address"
        },
        {
          "indexed": false,
          "internalType": "uint256",
          "name": "price",
          "type": "uint256"
        }
      ],
      "name": "TicketSold",
      "type": "event"
    },
    {
      "anonymous": false,
      "inputs": [
        {
          "indexed": true,
          "internalType": "address",
          "name": "from",
          "type": "address"
        },
        {
          "indexed": true,
          "internalType": "address",
          "name": "to",
          "type": "address"
        },
        {
          "indexed": true,
          "internalType": "uint256",
          "name": "tokenId",
          "type": "uint256"
        }
      ],
      "name": "Transfer",
      "type": "event"
    },
    {
      "inputs": [],
      "name": "DEFAULT_ADMIN_ROLE",
      "outputs": [
        {
          "internalType": "bytes32",
          "name": "",
          "type": "bytes32"
        }
      ],
      "stateMutability": "view",
      "type": "function"
    },
    {
      "inputs": [],
      "name": "MINTER_ROLE",
      "outputs": [
        {
          "internalType": "bytes32",
          "name": "",
          "type": "bytes32"
        }
      ],
      "stateMutability": "view",
      "type": "function"
    },
    {
      "inputs": [],
      "name": "SCANNER_ROLE",
      "outputs": [
        {
          "internalType": "bytes32",
          "name": "",
          "type": "bytes32"
        }
      ],
      "stateMutability": "view",
      "type": "function"
    },
    {
      "inputs": [
        {
          "internalType": "address",
          "name": "to",
          "type": "address"
        },
        {
          "internalType": "uint256",
          "name": "tokenId",
          "type": "uint256"
        }
      ],
      "name": "approve",
      "outputs": [],
      "stateMutability": "nonpayable",
      "type": "function"
    },
    {
      "inputs": [
        {
          "internalType": "address",
          "name": "owner",
          "type": "address"
        }
      ],
      "name": "balanceOf",
      "outputs": [
        {
          "internalType": "uint256",
          "name": "",
          "type": "uint256"
        }
      ],
      "stateMutability": "view",
      "type": "function"
    },
    {
      "inputs": [
        {
          "internalType": "uint256",
          "name": "tokenId",
          "type": "uint256"
        }
      ],
      "name": "burnTicket",
      "outputs": [],
      "stateMutability": "nonpayable",
      "type": "function"
    },
    {
      "inputs": [
        {
          "internalType": "uint256",
          "name": "tokenId",
          "type": "uint256"
        }
      ],
      "name": "buyTicket",
      "outputs": [],
      "stateMutability": "payable",
      "type": "function"
    },
    {
      "inputs": [
        {
          "internalType": "uint256",
          "name": "tokenId",
          "type": "uint256"
        }
      ],
      "name": "cancelListing",
      "outputs": [],
      "stateMutability": "nonpayable",
      "type": "function"
    },
    {
      "inputs": [
        {
          "internalType": "uint256",
          "name": "tokenId",
          "type": "uint256"
        }
      ],
      "name": "getApproved",
      "outputs": [
        {
          "internalType": "address",
          "name": "",
          "type": "address"
        }
      ],
      "stateMutability": "view",
      "type": "function"
    },
    {
      "inputs": [
        {
          "internalType": "bytes32",
          "name": "role",
          "type": "bytes32"
        }
      ],
      "name": "getRoleAdmin",
      "outputs": [
        {
          "internalType": "bytes32",
          "name": "",
          "type": "bytes32"
        }
      ],
      "stateMutability": "view",
      "type": "function"
    },
    {
      "inputs": [
        {
          "internalType": "uint256",
          "name": "tokenId",
          "type": "uint256"
        }
      ],
      "name": "getTicketInfo",
      "outputs": [
        {
          "components": [
            {
              "internalType": "uint256",
              "name": "eventId",
              "type": "uint256"
            },
            {
              "internalType": "bool",
              "name": "scanned",
              "type": "bool"
            }
          ],
          "internalType": "struct TicketManager.TicketInfo",
          "name": "info",
          "type": "tuple"
        },
        {
          "components": [
            {
              "internalType": "address",
              "name": "seller",
              "type": "address"
            },
            {
              "internalType": "uint256",
              "name": "price",
              "type": "uint256"
            }
          ],
          "internalType": "struct TicketManager.ResaleListing",
          "name": "listing",
          "type": "tuple"
        }
      ],
      "stateMutability": "view",
      "type": "function"
    },
    {
      "inputs": [
        {
          "internalType": "bytes32",
          "name": "role",
          "type": "bytes32"
        },
        {
          "internalType": "address",
          "name": "account",
          "type": "address"
        }
      ],
      "name": "grantRole",
      "outputs": [],
      "stateMutability": "nonpayable",
      "type": "function"
    },
    {
      "inputs": [
        {
          "internalType": "bytes32",
          "name": "role",
          "type": "bytes32"
        },
        {
          "internalType": "address",
          "name": "account",
          "type": "address"
        }
      ],
      "name": "hasRole",
      "outputs": [
        {
          "internalType": "bool",
          "name": "",
          "type": "bool"
        }
      ],
      "stateMutability": "view",
      "type": "function"
    },
    {
      "inputs": [
        {
          "internalType": "address",
          "name": "owner",
          "type": "address"
        },
        {
          "internalType": "address",
          "name": "operator",
          "type": "address"
        }
      ],
      "name": "isApprovedForAll",
      "outputs": [
        {
          "internalType": "bool",
          "name": "",
          "type": "bool"
        }
      ],
      "stateMutability": "view",
      "type": "function"
    },
    {
      "inputs": [
        {
          "internalType": "uint256",
          "name": "tokenId",
          "type": "uint256"
        },
        {
          "internalType": "uint256",
          "name": "price",
          "type": "uint256"
        }
      ],
      "name": "listTicket",
      "outputs": [],
      "stateMutability": "nonpayable",
      "type": "function"
    },
    {
      "inputs": [
        {
          "internalType": "address",
          "name": "to",
          "type": "address"
        },
        {
          "internalType": "uint256",
          "name": "eventId",
          "type": "uint256"
        },
        {
          "internalType": "string",
          "name": "tokenUri",
          "type": "string"
        }
      ],
      "name": "mintTicket",
      "outputs": [
        {
          "internalType": "uint256",
          "name": "tokenId",
          "type": "uint256"
        }
      ],
      "stateMutability": "nonpayable",
      "type": "function"
    },
    {
      "inputs": [],
      "name": "name",
      "outputs": [
        {
          "internalType": "string",
          "name": "",
          "type": "string"
        }
      ],
      "stateMutability": "view",
      "type": "function"
    },
    {
      "inputs": [],
      "name": "nextTokenId",
      "outputs": [
        {
          "internalType": "uint256",
          "name": "",
          "type": "uint256"
        }
      ],
      "stateMutability": "view",
      "type": "function"
    },
    {
      "inputs": [
        {
          "internalType": "uint256",
          "name": "tokenId",
          "type": "uint256"
        }
      ],
      "name": "ownerOf",
      "outputs": [
        {
          "internalType": "address",
          "name": "",
          "type": "address"
        }
      ],
      "stateMutability": "view",
      "type": "function"
    },
    {
      "inputs": [
        {
          "internalType": "bytes32",
          "name": "role",
          "type": "bytes32"
        },
        {
          "internalType": "address",
          "name": "callerConfirmation",
          "type": "address"
        }
      ],
      "name": "renounceRole",
      "outputs": [],
      "stateMutability": "nonpayable",
      "type": "function"
    },
    {
      "inputs": [
        {
          "internalType": "bytes32",
          "name": "role",
          "type": "bytes32"
        },
        {
          "internalType": "address",
          "name": "account",
          "type": "address"
        }
      ],
      "name": "revokeRole",
      "outputs": [],
      "stateMutability": "nonpayable",
      "type": "function"
    },
    {
      "inputs": [],
      "name": "royaltyBps",
      "outputs": [
        {
          "internalType": "uint96",
          "name": "",
          "type": "uint96"
        }
      ],
      "stateMutability": "view",
      "type": "function"
    },
    {
      "inputs": [],
      "name": "royaltyRecipient",
      "outputs": [
        {
          "internalType": "address",
          "name": "",
          "type": "address"
        }
      ],
      "stateMutability": "view",
      "type": "function"
    },
    {
      "inputs": [
        {
          "internalType": "address",
          "name": "from",
          "type": "address"
        },
        {
          "internalType": "address",
          "name": "to",
          "type": "address"
        },
        {
          "internalType": "uint256",
          "name": "tokenId",
          "type": "uint256"
        }
      ],
      "name": "safeTransferFrom",
      "outputs": [],
      "stateMutability": "nonpayable",
      "type": "function"
    },
    {
      "inputs": [
        {
          "internalType": "address",
          "name": "from",
          "type": "address"
        },
        {
          "internalType": "address",
          "name": "to",
          "type": "address"
        },
        {
          "internalType": "uint256",
          "name": "tokenId",
          "type": "uint256"
        },
        {
          "internalType": "bytes",
          "name": "data",
          "type": "bytes"
        }
      ],
      "name": "safeTransferFrom",
      "outputs": [],
      "stateMutability": "nonpayable",
      "type": "function"
    },
    {
      "inputs": [
        {
          "internalType": "uint256",
          "name": "tokenId",
          "type": "uint256"
        }
      ],
      "name": "scanTicket",
      "outputs": [],
      "stateMutability": "nonpayable",
      "type": "function"
    },
    {
      "inputs": [
        {
          "internalType": "address",
          "name": "operator",
          "type": "address"
        },
        {
          "internalType": "bool",
          "name": "approved",
          "type": "bool"
        }
      ],
      "name": "setApprovalForAll",
      "outputs": [],
      "stateMutability": "nonpayable",
      "type": "function"
    },
    {
      "inputs": [
        {
          "internalType": "address",
          "name": "recipient",
          "type": "address"
        },
        {
          "internalType": "uint96",
          "name": "bps",
          "type": "uint96"
        }
      ],
      "name": "setRoyalty",
      "outputs": [],
      "stateMutability": "nonpayable",
      "type": "function"
    },
    {
      "inputs": [
        {
          "internalType": "bytes4",
          "name": "interfaceId",
          "type": "bytes4"
        }
      ],
      "name": "supportsInterface",
      "outputs": [
        {
          "internalType": "bool",
          "name": "",
          "type": "bool"
        }
      ],
      "stateMutability": "view",
      "type": "function"
    },
    {
      "inputs": [],
      "name": "symbol",
      "outputs": [
        {
          "internalType": "string",
          "name": "",
          "type": "string"
        }
      ],
      "stateMutability": "view",
      "type": "function"
    },
    {
      "inputs": [
        {
          "internalType": "uint256",
          "name": "tokenId",
          "type": "uint256"
        }
      ],
      "name": "tokenURI",
      "outputs": [
        {
          "internalType": "string",
          "name": "",
          "type": "string"
        }
      ],
      "stateMutability": "view",
      "type": "function"
    },
    {
      "inputs": [
        {
          "internalType": "address",
          "name": "from",
          "type": "address"
        },
        {
          "internalType": "address",
          "name": "to",
          "type": "address"
        },
        {
          "internalType": "uint256",
          "name": "tokenId",
          "type": "uint256"
        }
      ],
      "name": "transferFrom",
      "outputs": [],
      "stateMutability": "nonpayable",
      "type": "function"
    }
  ],
  "bytecode": "0x60806040526001600b553480156200001657600080fd5b5060405162004e3e38038062004e3e83398181016040528101906200003c9190620004db565b6040518060400160405280600a81526020017f4e4654205469636b6574000000000000000000000000000000000000000000008152506040518060400160405280600581526020017f4e2d5449580000000000000000000000000000000000000000000000000000008152508160009081620000b99190620007b1565b508060019081620000cb9190620007b1565b5050506001600881905550600073ffffffffffffffffffffffffffffffffffffffff168373ffffffffffffffffffffffffffffffffffffffff160362000148576040517f08c379a00000000000000000000000000000000000000000000000000000000081526004016200013f90620008f9565b60405180910390fd5b600073ffffffffffffffffffffffffffffffffffffffff168273ffffffffffffffffffffffffffffffffffffffff1603620001ba576040517f08c379a0000000000000000000000000000000000000000000000000000000008152600401620001b1906200096b565b60405180910390fd5b81600c60006101000a81548173ffffffffffffffffffffffffffffffffffffffff021916908373ffffffffffffffffffffffffffffffffffffffff16021790555080600c60146101000a8154816bffffffffffffffffffffffff02191690836bffffffffffffffffffffffff160217905550620002416000801b84620002b160201b60201c565b50620002747f9f2df0fed2c77648de5860a4cc508cd0818c85b8b8a1ab4ceeef8d981c8956a684620002b160201b60201c565b50620002a77fa9b81438e9053a522b683603c102f65503853bc7aa82f89a130662d957c081fb84620002b160201b60201c565b505050506200098d565b6000620002c58383620003b560201b60201c565b620003aa5760016007600085815260200190815260200160002060000160008473ffffffffffffffffffffffffffffffffffffffff1673ffffffffffffffffffffffffffffffffffffffff16815260200190815260200160002060006101000a81548160ff021916908315150217905550620003466200042060201b60201c565b73ffffffffffffffffffffffffffffffffffffffff168273ffffffffffffffffffffffffffffffffffffffff16847f2f8788117e7eff1d82e926ec794901d17c78024a50270940304540a733656f0d60405160405180910390a460019050620003af565b600090505b92915050565b60006007600084815260200190815260200160002060000160008373ffffffffffffffffffffffffffffffffffffffff1673ffffffffffffffffffffffffffffffffffffffff16815260200190815260200160002060009054906101000a900460ff16905092915050565b600033905090565b600080fd5b600073ffffffffffffffffffffffffffffffffffffffff82169050919050565b60006200045a826200042d565b9050919050565b6200046c816200044d565b81146200047857600080fd5b50565b6000815190506200048c8162000461565b92915050565b60006bffffffffffffffffffffffff82169050919050565b620004b58162000492565b8114620004c157600080fd5b50565b600081519050620004d581620004aa565b92915050565b600080600060608486031215620004f757620004f662000428565b5b600062000507868287016200047b565b93505060206200051a868287016200047b565b92505060406200052d86828701620004c4565b9150509250925092565b600081519050919050565b7f4e487b7100000000000000000000000000000000000000000000000000000000600052604160045260246000fd5b7f4e487b7100000000000000000000000000000000000000000000000000000000600052602260045260246000fd5b60006002820490506001821680620005b957607f821691505b602082108103620005cf57620005ce62000571565b5b50919050565b60008190508160005260206000209050919050565b60006020601f8301049050919050565b600082821b905092915050565b600060088302620006397fffffffffffffffffffffffffffffffffffffffffffffffffffffffffffffffff82620005fa565b620006458683620005fa565b95508019841693508086168417925050509392505050565b6000819050919050565b6000819050919050565b6000620006926200068c62000686846200065d565b62000667565b6200065d565b9050919050565b6000819050919050565b620006ae8362000671565b620006c6620006bd8262000699565b84845462000607565b825550505050565b600090565b620006dd620006ce565b620006ea818484620006a3565b505050565b5b81811015620007125762000706600082620006d3565b600181019050620006f0565b5050565b601f82111562000761576200072b81620005d5565b6200073684620005ea565b8101602085101562000746578190505b6200075e6200075585620005ea565b830182620006ef565b50505b505050565b600082821c905092915050565b6000620007866000198460080262000766565b1980831691505092915050565b6000620007a1838362000773565b9150826002028217905092915050565b620007bc8262000537565b67ffffffffffffffff811115620007d857620007d762000542565b5b620007e48254620005a0565b620007f182828562000716565b600060209050601f83116001811462000829576000841562000814578287015190505b62000820858262000793565b86555062000890565b601f1984166200083986620005d5565b60005b8281101562000863578489015182556001820191506020850194506020810190506200083c565b868310156200088357848901516200087f601f89168262000773565b8355505b6001600288020188555050505b505050505050565b600082825260208201905092915050565b7f41646d696e207265717569726564000000000000000000000000000000000000600082015250565b6000620008e1600e8362000898565b9150620008ee82620008a9565b602082019050919050565b600060208201905081810360008301526200091481620008d2565b9050919050565b7f526f79616c747920726563697069656e74207265717569726564000000000000600082015250565b600062000953601a8362000898565b915062000960826200091b565b602082019050919050565b60006020820190508181036000830152620009868162000944565b9050919050565b6144a1806200099d6000396000f3fe6080604052600436106101e35760003560e01c806370a0823111610102578063b88d4fde11610095578063d547741f11610064578063d547741f14610707578063daf62ebb14610730578063e985e9c514610759578063ff99a06314610796576101e3565b8063b88d4fde1461064b578063c63adb2b14610674578063c87b56dd1461069f578063d5391393146106dc576101e3565b806395d89b41116100d157806395d89b41146105a3578063a217fddf146105ce578063a22cb465146105f9578063a476b73d14610622576101e3565b806370a08231146104d557806375794a3c146105125780638f2fc60b1461053d57806391d1485414610566576101e3565b80632f2ff15d1161017a57806342842e0e1161014957806342842e0e146104285780634c00de82146104515780636352211e1461047c57806367dd74ca146104b9576101e3565b80632f2ff15d14610384578063305a67a8146103ad578063305a905a146103d657806336568abe146103ff576101e3565b8063095ea7b3116101b6578063095ea7b3146102ca5780630c073cb5146102f357806323b872dd1461031e578063248a9ca314610347576101e3565b806301ffc9a7146101e857806303543fea1461022557806306fdde0314610262578063081812fc1461028d575b600080fd5b3480156101f457600080fd5b5061020f600480360381019061020a91906130bd565b6107d4565b60405161021c9190613105565b60405180910390f35b34801561023157600080fd5b5061024c600480360381019061024791906132fa565b6107e6565b6040516102599190613378565b60405180910390f35b34801561026e57600080fd5b50610277610996565b6040516102849190613412565b60405180910390f35b34801561029957600080fd5b506102b460048036038101906102af9190613434565b610a28565b6040516102c19190613470565b60405180910390f35b3480156102d657600080fd5b506102f160048036038101906102ec919061348b565b610a44565b005b3480156102ff57600080fd5b50610308610a5a565b60405161031591906134e4565b60405180910390f35b34801561032a57600080fd5b50610345600480360381019061034091906134ff565b610a7e565b005b34801561035357600080fd5b5061036e6004803603810190610369919061357e565b610b80565b60405161037b91906134e4565b60405180910390f35b34801561039057600080fd5b506103ab60048036038101906103a691906135ab565b610ba0565b005b3480156103b957600080fd5b506103d460048036038101906103cf9190613434565b610bc2565b005b3480156103e257600080fd5b506103fd60048036038101906103f891906135eb565b610db3565b005b34801561040b57600080fd5b50610426600480360381019061042191906135ab565b610eee565b005b34801561043457600080fd5b5061044f600480360381019061044a91906134ff565b610f69565b005b34801561045d57600080fd5b50610466610f89565b6040516104739190613470565b60405180910390f35b34801561048857600080fd5b506104a3600480360381019061049e9190613434565b610faf565b6040516104b09190613470565b60405180910390f35b6104d360048036038101906104ce9190613434565b610fc1565b005b3480156104e157600080fd5b506104fc60048036038101906104f7919061362b565b6113a1565b6040516105099190613378565b60405180910390f35b34801561051e57600080fd5b5061052761145b565b6040516105349190613378565b60405180910390f35b34801561054957600080fd5b50610564600480360381019061055f919061369c565b611461565b005b34801561057257600080fd5b5061058d600480360381019061058891906135ab565b6115a7565b60405161059a9190613105565b60405180910390f35b3480156105af57600080fd5b506105b8611612565b6040516105c59190613412565b60405180910390f35b3480156105da57600080fd5b506105e36116a4565b6040516105f091906134e4565b60405180910390f35b34801561060557600080fd5b50610620600480360381019061061b9190613708565b6116ab565b005b34801561062e57600080fd5b5061064960048036038101906106449190613434565b6116c1565b005b34801561065757600080fd5b50610672600480360381019061066d91906137e9565b61175c565b005b34801561068057600080fd5b50610689611781565b604051610696919061387b565b60405180910390f35b3480156106ab57600080fd5b506106c660048036038101906106c19190613434565b61179f565b6040516106d39190613412565b60405180910390f35b3480156106e857600080fd5b506106f16118b2565b6040516106fe91906134e4565b60405180910390f35b34801561071357600080fd5b5061072e600480360381019061072991906135ab565b6118d6565b005b34801561073c57600080fd5b5061075760048036038101906107529190613434565b6118f8565b005b34801561076557600080fd5b50610780600480360381019061077b9190613896565b6119fb565b60405161078d9190613105565b60405180910390f35b3480156107a257600080fd5b506107bd60048036038101906107b89190613434565b611a8f565b6040516107cb929190613961565b60405180910390f35b60006107df82611b79565b9050919050565b60007f9f2df0fed2c77648de5860a4cc508cd0818c85b8b8a1ab4ceeef8d981c8956a661081281611bf3565b600073ffffffffffffffffffffffffffffffffffffffff168573ffffffffffffffffffffffffffffffffffffffff1603610881576040517f08c379a0000000000000000000000000000000000000000000000000000000008152600401610878906139d6565b60405180910390fd5b600084036108c4576040517f08c379a00000000000000000000000000000000000000000000000000000000081526004016108bb90613a42565b60405180910390fd5b600b60008154809291906108d790613a91565b9190505591506108e78583611c07565b6108f18284611c25565b604051806040016040528085815260200160001515815250600960008481526020019081526020016000206000820151816000015560208201518160010160006101000a81548160ff021916908315150217905550905050838573ffffffffffffffffffffffffffffffffffffffff16837f5c1c9352d51031acc9a558d7cdcca15b0ce5fe4f46d7315cca355248175b0a3760405160405180910390a4509392505050565b6060600080546109a590613b08565b80601f01602080910402602001604051908101604052809291908181526020018280546109d190613b08565b8015610a1e5780601f106109f357610100808354040283529160200191610a1e565b820191906000526020600020905b815481529060010190602001808311610a0157829003601f168201915b5050505050905090565b6000610a3382611c81565b50610a3d82611d09565b9050919050565b610a568282610a51611d46565b611d4e565b5050565b7fa9b81438e9053a522b683603c102f65503853bc7aa82f89a130662d957c081fb81565b600073ffffffffffffffffffffffffffffffffffffffff168273ffffffffffffffffffffffffffffffffffffffff1603610af05760006040517f64a0ae92000000000000000000000000000000000000000000000000000000008152600401610ae79190613470565b60405180910390fd5b6000610b048383610aff611d46565b611d60565b90508373ffffffffffffffffffffffffffffffffffffffff168173ffffffffffffffffffffffffffffffffffffffff1614610b7a578382826040517f64283d7b000000000000000000000000000000000000000000000000000000008152600401610b7193929190613b39565b60405180910390fd5b50505050565b600060076000838152602001908152602001600020600101549050919050565b610ba982610b80565b610bb281611bf3565b610bbc8383611f7a565b50505050565b6000600a60008381526020019081526020016000206040518060400160405290816000820160009054906101000a900473ffffffffffffffffffffffffffffffffffffffff1673ffffffffffffffffffffffffffffffffffffffff1673ffffffffffffffffffffffffffffffffffffffff1681526020016001820154815250509050600073ffffffffffffffffffffffffffffffffffffffff16816000015173ffffffffffffffffffffffffffffffffffffffff1603610cb7576040517f08c379a0000000000000000000000000000000000000000000000000000000008152600401610cae90613bbc565b60405180910390fd5b3373ffffffffffffffffffffffffffffffffffffffff16816000015173ffffffffffffffffffffffffffffffffffffffff161480610cfe5750610cfd6000801b336115a7565b5b610d3d576040517f08c379a0000000000000000000000000000000000000000000000000000000008152600401610d3490613c28565b60405180910390fd5b600a6000838152602001908152602001600020600080820160006101000a81549073ffffffffffffffffffffffffffffffffffffffff021916905560018201600090555050817fa63240fb150aeaf4a24626afc3794418394df7cd58a185f64bb33744b21447e360405160405180910390a25050565b610dc6610dbf8361206c565b33846120a9565b60008111610e09576040517f08c379a0000000000000000000000000000000000000000000000000000000008152600401610e0090613c94565b60405180910390fd5b60405180604001604052803373ffffffffffffffffffffffffffffffffffffffff16815260200182815250600a600084815260200190815260200160002060008201518160000160006101000a81548173ffffffffffffffffffffffffffffffffffffffff021916908373ffffffffffffffffffffffffffffffffffffffff160217905550602082015181600101559050503373ffffffffffffffffffffffffffffffffffffffff16827f22968ec3be3687b180f3544163a034b88d57b48159d9a7e9a1b610fdb2d05f8083604051610ee29190613378565b60405180910390a35050565b610ef6611d46565b73ffffffffffffffffffffffffffffffffffffffff168173ffffffffffffffffffffffffffffffffffffffff1614610f5a576040517f6697b23200000000000000000000000000000000000000000000000000000000815260040160405180910390fd5b610f64828261216d565b505050565b610f848383836040518060200160405280600081525061175c565b505050565b600c60009054906101000a900473ffffffffffffffffffffffffffffffffffffffff1681565b6000610fba82611c81565b9050919050565b610fc9612260565b6000600a60008381526020019081526020016000206040518060400160405290816000820160009054906101000a900473ffffffffffffffffffffffffffffffffffffffff1673ffffffffffffffffffffffffffffffffffffffff1673ffffffffffffffffffffffffffffffffffffffff1681526020016001820154815250509050600073ffffffffffffffffffffffffffffffffffffffff16816000015173ffffffffffffffffffffffffffffffffffffffff16036110be576040517f08c379a00000000000000000000000000000000000000000000000000000000081526004016110b590613bbc565b60405180910390fd5b8060200151341015611105576040517f08c379a00000000000000000000000000000000000000000000000000000000081526004016110fc90613d00565b60405180910390fd5b600a6000838152602001908152602001600020600080820160006101000a81549073ffffffffffffffffffffffffffffffffffffffff0219169055600182016000905550506000612710600c60149054906101000a90046bffffffffffffffffffffffff166bffffffffffffffffffffffff1683602001516111879190613d20565b6111919190613d91565b905060008183602001516111a59190613dc2565b90506000821115611280576000600c60009054906101000a900473ffffffffffffffffffffffffffffffffffffffff1673ffffffffffffffffffffffffffffffffffffffff16836040516111f890613e27565b60006040518083038185875af1925050503d8060008114611235576040519150601f19603f3d011682016040523d82523d6000602084013e61123a565b606091505b505090508061127e576040517f08c379a000000000000000000000000000000000000000000000000000000000815260040161127590613e88565b60405180910390fd5b505b6000836000015173ffffffffffffffffffffffffffffffffffffffff16826040516112aa90613e27565b60006040518083038185875af1925050503d80600081146112e7576040519150601f19603f3d011682016040523d82523d6000602084013e6112ec565b606091505b5050905080611330576040517f08c379a000000000000000000000000000000000000000000000000000000000815260040161132790613ef4565b60405180910390fd5b61133f846000015133876122a6565b3373ffffffffffffffffffffffffffffffffffffffff16857fbce6612c87f6b5711225ffc4b9f920148cd399de49ba10137fe0d3c531333841866020015160405161138a9190613378565b60405180910390a35050505061139e612413565b50565b60008073ffffffffffffffffffffffffffffffffffffffff168273ffffffffffffffffffffffffffffffffffffffff16036114145760006040517f89c62b6400000000000000000000000000000000000000000000000000000000815260040161140b9190613470565b60405180910390fd5b600360008373ffffffffffffffffffffffffffffffffffffffff1673ffffffffffffffffffffffffffffffffffffffff168152602001908152602001600020549050919050565b600b5481565b6000801b61146e81611bf3565b600073ffffffffffffffffffffffffffffffffffffffff168373ffffffffffffffffffffffffffffffffffffffff16036114dd576040517f08c379a00000000000000000000000000000000000000000000000000000000081526004016114d490613f60565b60405180910390fd5b6107d0826bffffffffffffffffffffffff161115611530576040517f08c379a000000000000000000000000000000000000000000000000000000000815260040161152790613fcc565b60405180910390fd5b82600c60006101000a81548173ffffffffffffffffffffffffffffffffffffffff021916908373ffffffffffffffffffffffffffffffffffffffff16021790555081600c60146101000a8154816bffffffffffffffffffffffff02191690836bffffffffffffffffffffffff160217905550505050565b60006007600084815260200190815260200160002060000160008373ffffffffffffffffffffffffffffffffffffffff1673ffffffffffffffffffffffffffffffffffffffff16815260200190815260200160002060009054906101000a900460ff16905092915050565b60606001805461162190613b08565b80601f016020809104026020016040519081016040528092919081815260200182805461164d90613b08565b801561169a5780601f1061166f5761010080835404028352916020019161169a565b820191906000526020600020905b81548152906001019060200180831161167d57829003601f168201915b5050505050905090565b6000801b81565b6116bd6116b6611d46565b838361241d565b5050565b6000801b6116ce81611bf3565b6116d782611c81565b506116e18261258c565b600960008381526020019081526020016000206000808201600090556001820160006101000a81549060ff02191690555050600a6000838152602001908152602001600020600080820160006101000a81549073ffffffffffffffffffffffffffffffffffffffff0219169055600182016000905550505050565b611767848484610a7e565b61177b611772611d46565b85858585612612565b50505050565b600c60149054906101000a90046bffffffffffffffffffffffff1681565b60606117aa82611c81565b5060006006600084815260200190815260200160002080546117cb90613b08565b80601f01602080910402602001604051908101604052809291908181526020018280546117f790613b08565b80156118445780601f1061181957610100808354040283529160200191611844565b820191906000526020600020905b81548152906001019060200180831161182757829003601f168201915b5050505050905060006118556127c3565b9050600081510361186a5781925050506118ad565b60008251111561189f578082604051602001611887929190614028565b604051602081830303815290604052925050506118ad565b6118a8846127da565b925050505b919050565b7f9f2df0fed2c77648de5860a4cc508cd0818c85b8b8a1ab4ceeef8d981c8956a681565b6118df82610b80565b6118e881611bf3565b6118f2838361216d565b50505050565b7fa9b81438e9053a522b683603c102f65503853bc7aa82f89a130662d957c081fb61192281611bf3565b61192b82611c81565b5060006009600084815260200190815260200160002090508060010160009054906101000a900460ff1615611995576040517f08c379a000000000000000000000000000000000000000000000000000000000815260040161198c90614098565b60405180910390fd5b60018160010160006101000a81548160ff0219169083151502179055503373ffffffffffffffffffffffffffffffffffffffff16837fcc6b0d410e7ef73ccc91ccbb9c6511f62cd7d587a3ac7adabeaca71c3346cbf960405160405180910390a3505050565b6000600560008473ffffffffffffffffffffffffffffffffffffffff1673ffffffffffffffffffffffffffffffffffffffff16815260200190815260200160002060008373ffffffffffffffffffffffffffffffffffffffff1673ffffffffffffffffffffffffffffffffffffffff16815260200190815260200160002060009054906101000a900460ff16905092915050565b611a97613005565b611a9f613021565b611aa883611c81565b5060096000848152602001908152602001600020600a600085815260200190815260200160002081604051806040016040529081600082015481526020016001820160009054906101000a900460ff1615151515815250509150806040518060400160405290816000820160009054906101000a900473ffffffffffffffffffffffffffffffffffffffff1673ffffffffffffffffffffffffffffffffffffffff1673ffffffffffffffffffffffffffffffffffffffff168152602001600182015481525050905091509150915091565b60007f7965db0b000000000000000000000000000000000000000000000000000000007bffffffffffffffffffffffffffffffffffffffffffffffffffffffff1916827bffffffffffffffffffffffffffffffffffffffffffffffffffffffff19161480611bec5750611beb82612843565b5b9050919050565b611c0481611bff611d46565b6128a4565b50565b611c218282604051806020016040528060008152506128f5565b5050565b80600660008481526020019081526020016000209081611c459190614264565b507ff8e1a15aba9398e019f0b49df1a4fde98ee17ae345cb5f6b5e2c27f5033e8ce782604051611c759190613378565b60405180910390a15050565b600080611c8d8361206c565b9050600073ffffffffffffffffffffffffffffffffffffffff168173ffffffffffffffffffffffffffffffffffffffff1603611d0057826040517f7e273289000000000000000000000000000000000000000000000000000000008152600401611cf79190613378565b60405180910390fd5b80915050919050565b60006004600083815260200190815260200160002060009054906101000a900473ffffffffffffffffffffffffffffffffffffffff169050919050565b600033905090565b611d5b8383836001612919565b505050565b600080611d6c8461206c565b9050600073ffffffffffffffffffffffffffffffffffffffff168373ffffffffffffffffffffffffffffffffffffffff1614611dae57611dad8184866120a9565b5b600073ffffffffffffffffffffffffffffffffffffffff168173ffffffffffffffffffffffffffffffffffffffff1614611e3f57611df0600085600080612919565b6001600360008373ffffffffffffffffffffffffffffffffffffffff1673ffffffffffffffffffffffffffffffffffffffff168152602001908152602001600020600082825403925050819055505b600073ffffffffffffffffffffffffffffffffffffffff168573ffffffffffffffffffffffffffffffffffffffff1614611ec2576001600360008773ffffffffffffffffffffffffffffffffffffffff1673ffffffffffffffffffffffffffffffffffffffff168152602001908152602001600020600082825401925050819055505b846002600086815260200190815260200160002060006101000a81548173ffffffffffffffffffffffffffffffffffffffff021916908373ffffffffffffffffffffffffffffffffffffffff160217905550838573ffffffffffffffffffffffffffffffffffffffff168273ffffffffffffffffffffffffffffffffffffffff167fddf252ad1be2c89b69c2b068fc378daa952ba7f163c4a11628f55a4df523b3ef60405160405180910390a4809150509392505050565b6000611f8683836115a7565b6120615760016007600085815260200190815260200160002060000160008473ffffffffffffffffffffffffffffffffffffffff1673ffffffffffffffffffffffffffffffffffffffff16815260200190815260200160002060006101000a81548160ff021916908315150217905550611ffe611d46565b73ffffffffffffffffffffffffffffffffffffffff168273ffffffffffffffffffffffffffffffffffffffff16847f2f8788117e7eff1d82e926ec794901d17c78024a50270940304540a733656f0d60405160405180910390a460019050612066565b600090505b92915050565b60006002600083815260200190815260200160002060009054906101000a900473ffffffffffffffffffffffffffffffffffffffff169050919050565b6120b4838383612ade565b61216857600073ffffffffffffffffffffffffffffffffffffffff168373ffffffffffffffffffffffffffffffffffffffff160361212957806040517f7e2732890000000000000000000000000000000000000000000000000000000081526004016121209190613378565b60405180910390fd5b81816040517f177e802f00000000000000000000000000000000000000000000000000000000815260040161215f929190614336565b60405180910390fd5b505050565b600061217983836115a7565b156122555760006007600085815260200190815260200160002060000160008473ffffffffffffffffffffffffffffffffffffffff1673ffffffffffffffffffffffffffffffffffffffff16815260200190815260200160002060006101000a81548160ff0219169083151502179055506121f2611d46565b73ffffffffffffffffffffffffffffffffffffffff168273ffffffffffffffffffffffffffffffffffffffff16847ff6391f5c32d9c69d2a47ea670b442974b53935d1edc7fd64eb21e047a839171b60405160405180910390a46001905061225a565b600090505b92915050565b60026008540361229c576040517f3ee5aeb500000000000000000000000000000000000000000000000000000000815260040160405180910390fd5b6002600881905550565b600073ffffffffffffffffffffffffffffffffffffffff168273ffffffffffffffffffffffffffffffffffffffff16036123185760006040517f64a0ae9200000000000000000000000000000000000000000000000000000000815260040161230f9190613470565b60405180910390fd5b600061232683836000611d60565b9050600073ffffffffffffffffffffffffffffffffffffffff168173ffffffffffffffffffffffffffffffffffffffff160361239957816040517f7e2732890000000000000000000000000000000000000000000000000000000081526004016123909190613378565b60405180910390fd5b8373ffffffffffffffffffffffffffffffffffffffff168173ffffffffffffffffffffffffffffffffffffffff161461240d578382826040517f64283d7b00000000000000000000000000000000000000000000000000000000815260040161240493929190613b39565b60405180910390fd5b50505050565b6001600881905550565b600073ffffffffffffffffffffffffffffffffffffffff168273ffffffffffffffffffffffffffffffffffffffff160361248e57816040517f5b08ba180000000000000000000000000000000000000000000000000000000081526004016124859190613470565b60405180910390fd5b80600560008573ffffffffffffffffffffffffffffffffffffffff1673ffffffffffffffffffffffffffffffffffffffff16815260200190815260200160002060008473ffffffffffffffffffffffffffffffffffffffff1673ffffffffffffffffffffffffffffffffffffffff16815260200190815260200160002060006101000a81548160ff0219169083151502179055508173ffffffffffffffffffffffffffffffffffffffff168373ffffffffffffffffffffffffffffffffffffffff167f17307eab39ab6107e8899845ad3d59bd9653f200f220920489ca2b5937696c318360405161257f9190613105565b60405180910390a3505050565b600061259b6000836000611d60565b9050600073ffffffffffffffffffffffffffffffffffffffff168173ffffffffffffffffffffffffffffffffffffffff160361260e57816040517f7e2732890000000000000000000000000000000000000000000000000000000081526004016126059190613378565b60405180910390fd5b5050565b60008373ffffffffffffffffffffffffffffffffffffffff163b11156127bc578273ffffffffffffffffffffffffffffffffffffffff1663150b7a02868685856040518563ffffffff1660e01b815260040161267194939291906143b4565b6020604051808303816000875af19250505080156126ad57506040513d601f19601f820116820180604052508101906126aa9190614415565b60015b612731573d80600081146126dd576040519150601f19603f3d011682016040523d82523d6000602084013e6126e2565b606091505b50600081510361272957836040517f64a0ae920000000000000000000000000000000000000000000000000000000081526004016127209190613470565b60405180910390fd5b805160208201fd5b63150b7a0260e01b7bffffffffffffffffffffffffffffffffffffffffffffffffffffffff1916817bffffffffffffffffffffffffffffffffffffffffffffffffffffffff1916146127ba57836040517f64a0ae920000000000000000000000000000000000000000000000000000000081526004016127b19190613470565b60405180910390fd5b505b5050505050565b606060405180602001604052806000815250905090565b60606127e582611c81565b5060006127f06127c3565b90506000815111612810576040518060200160405280600081525061283b565b8061281a84612b9f565b60405160200161282b929190614028565b6040516020818303038152906040525b915050919050565b6000634906490660e01b7bffffffffffffffffffffffffffffffffffffffffffffffffffffffff1916827bffffffffffffffffffffffffffffffffffffffffffffffffffffffff1916148061289d575061289c82612c6d565b5b9050919050565b6128ae82826115a7565b6128f15780826040517fe2517d3f0000000000000000000000000000000000000000000000000000000081526004016128e8929190614442565b60405180910390fd5b5050565b6128ff8383612d4f565b61291461290a611d46565b6000858585612612565b505050565b80806129525750600073ffffffffffffffffffffffffffffffffffffffff168273ffffffffffffffffffffffffffffffffffffffff1614155b15612a8657600061296284611c81565b9050600073ffffffffffffffffffffffffffffffffffffffff168373ffffffffffffffffffffffffffffffffffffffff16141580156129cd57508273ffffffffffffffffffffffffffffffffffffffff168173ffffffffffffffffffffffffffffffffffffffff1614155b80156129e057506129de81846119fb565b155b15612a2257826040517fa9fbf51f000000000000000000000000000000000000000000000000000000008152600401612a199190613470565b60405180910390fd5b8115612a8457838573ffffffffffffffffffffffffffffffffffffffff168273ffffffffffffffffffffffffffffffffffffffff167f8c5be1e5ebec7d5bd14f71427d1e84f3dd0314c0f7b2291e5b200ac8c7c3b92560405160405180910390a45b505b836004600085815260200190815260200160002060006101000a81548173ffffffffffffffffffffffffffffffffffffffff021916908373ffffffffffffffffffffffffffffffffffffffff16021790555050505050565b60008073ffffffffffffffffffffffffffffffffffffffff168373ffffffffffffffffffffffffffffffffffffffff1614158015612b9657508273ffffffffffffffffffffffffffffffffffffffff168473ffffffffffffffffffffffffffffffffffffffff161480612b575750612b5684846119fb565b5b80612b9557508273ffffffffffffffffffffffffffffffffffffffff16612b7d83611d09565b73ffffffffffffffffffffffffffffffffffffffff16145b5b90509392505050565b606060006001612bae84612e48565b01905060008167ffffffffffffffff811115612bcd57612bcc6131cf565b5b6040519080825280601f01601f191660200182016040528015612bff5781602001600182028036833780820191505090505b509050600082602083010190505b600115612c62578080600190039150507f3031323334353637383961626364656600000000000000000000000000000000600a86061a8153600a8581612c5657612c55613d62565b5b04945060008503612c0d575b819350505050919050565b60007f80ac58cd000000000000000000000000000000000000000000000000000000007bffffffffffffffffffffffffffffffffffffffffffffffffffffffff1916827bffffffffffffffffffffffffffffffffffffffffffffffffffffffff19161480612d3857507f5b5e139f000000000000000000000000000000000000000000000000000000007bffffffffffffffffffffffffffffffffffffffffffffffffffffffff1916827bffffffffffffffffffffffffffffffffffffffffffffffffffffffff1916145b80612d485750612d4782612f9b565b5b9050919050565b600073ffffffffffffffffffffffffffffffffffffffff168273ffffffffffffffffffffffffffffffffffffffff1603612dc15760006040517f64a0ae92000000000000000000000000000000000000000000000000000000008152600401612db89190613470565b60405180910390fd5b6000612dcf83836000611d60565b9050600073ffffffffffffffffffffffffffffffffffffffff168173ffffffffffffffffffffffffffffffffffffffff1614612e435760006040517f73c6ac6e000000000000000000000000000000000000000000000000000000008152600401612e3a9190613470565b60405180910390fd5b505050565b600080600090507a184f03e93ff9f4daa797ed6e38ed64bf6a1f0100000000000000008310612ea6577a184f03e93ff9f4daa797ed6e38ed64bf6a1f0100000000000000008381612e9c57612e9b613d62565b5b0492506040810190505b6d04ee2d6d415b85acef81000000008310612ee3576d04ee2d6d415b85acef81000000008381612ed957612ed8613d62565b5b0492506020810190505b662386f26fc100008310612f1257662386f26fc100008381612f0857612f07613d62565b5b0492506010810190505b6305f5e1008310612f3b576305f5e1008381612f3157612f30613d62565b5b0492506008810190505b6127108310612f60576127108381612f5657612f55613d62565b5b0492506004810190505b60648310612f835760648381612f7957612f78613d62565b5b0492506002810190505b600a8310612f92576001810190505b80915050919050565b60007f01ffc9a7000000000000000000000000000000000000000000000000000000007bffffffffffffffffffffffffffffffffffffffffffffffffffffffff1916827bffffffffffffffffffffffffffffffffffffffffffffffffffffffff1916149050919050565b6040518060400160405280600081526020016000151581525090565b6040518060400160405280600073ffffffffffffffffffffffffffffffffffffffff168152602001600081525090565b6000604051905090565b600080fd5b600080fd5b60007fffffffff0000000000000000000000000000000000000000000000000000000082169050919050565b61309a81613065565b81146130a557600080fd5b50565b6000813590506130b781613091565b92915050565b6000602082840312156130d3576130d261305b565b5b60006130e1848285016130a8565b91505092915050565b60008115159050919050565b6130ff816130ea565b82525050565b600060208201905061311a60008301846130f6565b92915050565b600073ffffffffffffffffffffffffffffffffffffffff82169050919050565b600061314b82613120565b9050919050565b61315b81613140565b811461316657600080fd5b50565b60008135905061317881613152565b92915050565b6000819050919050565b6131918161317e565b811461319c57600080fd5b50565b6000813590506131ae81613188565b92915050565b600080fd5b600080fd5b6000601f19601f8301169050919050565b7f4e487b7100000000000000000000000000000000000000000000000000000000600052604160045260246000fd5b613207826131be565b810181811067ffffffffffffffff82111715613226576132256131cf565b5b80604052505050565b6000613239613051565b905061324582826131fe565b919050565b600067ffffffffffffffff821115613265576132646131cf565b5b61326e826131be565b9050602081019050919050565b82818337600083830152505050565b600061329d6132988461324a565b61322f565b9050828152602081018484840111156132b9576132b86131b9565b5b6132c484828561327b565b509392505050565b600082601f8301126132e1576132e06131b4565b5b81356132f184826020860161328a565b91505092915050565b6000806000606084860312156133135761331261305b565b5b600061332186828701613169565b93505060206133328682870161319f565b925050604084013567ffffffffffffffff81111561335357613352613060565b5b61335f868287016132cc565b9150509250925092565b6133728161317e565b82525050565b600060208201905061338d6000830184613369565b92915050565b600081519050919050565b600082825260208201905092915050565b60005b838110156133cd5780820151818401526020810190506133b2565b60008484015250505050565b60006133e482613393565b6133ee818561339e565b93506133fe8185602086016133af565b613407816131be565b840191505092915050565b6000602082019050818103600083015261342c81846133d9565b905092915050565b60006020828403121561344a5761344961305b565b5b60006134588482850161319f565b91505092915050565b61346a81613140565b82525050565b60006020820190506134856000830184613461565b92915050565b600080604083850312156134a2576134a161305b565b5b60006134b085828601613169565b92505060206134c18582860161319f565b9150509250929050565b6000819050919050565b6134de816134cb565b82525050565b60006020820190506134f960008301846134d5565b92915050565b6000806000606084860312156135185761351761305b565b5b600061352686828701613169565b935050602061353786828701613169565b92505060406135488682870161319f565b9150509250925092565b61355b816134cb565b811461356657600080fd5b50565b60008135905061357881613552565b92915050565b6000602082840312156135945761359361305b565b5b60006135a284828501613569565b91505092915050565b600080604083850312156135c2576135c161305b565b5b60006135d085828601613569565b92505060206135e185828601613169565b9150509250929050565b600080604083850312156136025761360161305b565b5b60006136108582860161319f565b92505060206136218582860161319f565b9150509250929050565b6000602082840312156136415761364061305b565b5b600061364f84828501613169565b91505092915050565b60006bffffffffffffffffffffffff82169050919050565b61367981613658565b811461368457600080fd5b50565b60008135905061369681613670565b92915050565b600080604083850312156136b3576136b261305b565b5b60006136c185828601613169565b92505060206136d285828601613687565b9150509250929050565b6136e5816130ea565b81146136f057600080fd5b50565b600081359050613702816136dc565b92915050565b6000806040838503121561371f5761371e61305b565b5b600061372d85828601613169565b925050602061373e858286016136f3565b9150509250929050565b600067ffffffffffffffff821115613763576137626131cf565b5b61376c826131be565b9050602081019050919050565b600061378c61378784613748565b61322f565b9050828152602081018484840111156137a8576137a76131b9565b5b6137b384828561327b565b509392505050565b600082601f8301126137d0576137cf6131b4565b5b81356137e0848260208601613779565b91505092915050565b600080600080608085870312156138035761380261305b565b5b600061381187828801613169565b945050602061382287828801613169565b93505060406138338782880161319f565b925050606085013567ffffffffffffffff81111561385457613853613060565b5b613860878288016137bb565b91505092959194509250565b61387581613658565b82525050565b6000602082019050613890600083018461386c565b92915050565b600080604083850312156138ad576138ac61305b565b5b60006138bb85828601613169565b92505060206138cc85828601613169565b9150509250929050565b6138df8161317e565b82525050565b6138ee816130ea565b82525050565b60408201600082015161390a60008501826138d6565b50602082015161391d60208501826138e5565b50505050565b61392c81613140565b82525050565b6040820160008201516139486000850182613923565b50602082015161395b60208501826138d6565b50505050565b600060808201905061397660008301856138f4565b6139836040830184613932565b9392505050565b7f696e76616c696420726563697069656e74000000000000000000000000000000600082015250565b60006139c060118361339e565b91506139cb8261398a565b602082019050919050565b600060208201905081810360008301526139ef816139b3565b9050919050565b7f6576656e74207265717569726564000000000000000000000000000000000000600082015250565b6000613a2c600e8361339e565b9150613a37826139f6565b602082019050919050565b60006020820190508181036000830152613a5b81613a1f565b9050919050565b7f4e487b7100000000000000000000000000000000000000000000000000000000600052601160045260246000fd5b6000613a9c8261317e565b91507fffffffffffffffffffffffffffffffffffffffffffffffffffffffffffffffff8203613ace57613acd613a62565b5b600182019050919050565b7f4e487b7100000000000000000000000000000000000000000000000000000000600052602260045260246000fd5b60006002820490506001821680613b2057607f821691505b602082108103613b3357613b32613ad9565b5b50919050565b6000606082019050613b4e6000830186613461565b613b5b6020830185613369565b613b686040830184613461565b949350505050565b7f6e6f74206c697374656400000000000000000000000000000000000000000000600082015250565b6000613ba6600a8361339e565b9150613bb182613b70565b602082019050919050565b60006020820190508181036000830152613bd581613b99565b9050919050565b7f6e6f742073656c6c657200000000000000000000000000000000000000000000600082015250565b6000613c12600a8361339e565b9150613c1d82613bdc565b602082019050919050565b60006020820190508181036000830152613c4181613c05565b9050919050565b7f7072696365207265717569726564000000000000000000000000000000000000600082015250565b6000613c7e600e8361339e565b9150613c8982613c48565b602082019050919050565b60006020820190508181036000830152613cad81613c71565b9050919050565b7f696e73756666696369656e742066756e64730000000000000000000000000000600082015250565b6000613cea60128361339e565b9150613cf582613cb4565b602082019050919050565b60006020820190508181036000830152613d1981613cdd565b9050919050565b6000613d2b8261317e565b9150613d368361317e565b9250828202613d448161317e565b91508282048414831517613d5b57613d5a613a62565b5b5092915050565b7f4e487b7100000000000000000000000000000000000000000000000000000000600052601260045260246000fd5b6000613d9c8261317e565b9150613da78361317e565b925082613db757613db6613d62565b5b828204905092915050565b6000613dcd8261317e565b9150613dd88361317e565b9250828203905081811115613df057613def613a62565b5b92915050565b600081905092915050565b50565b6000613e11600083613df6565b9150613e1c82613e01565b600082019050919050565b6000613e3282613e04565b9150819050919050565b7f726f79616c7479207472616e73666572206661696c6564000000000000000000600082015250565b6000613e7260178361339e565b9150613e7d82613e3c565b602082019050919050565b60006020820190508181036000830152613ea181613e65565b9050919050565b7f73656c6c6572207472616e73666572206661696c656400000000000000000000600082015250565b6000613ede60168361339e565b9150613ee982613ea8565b602082019050919050565b60006020820190508181036000830152613f0d81613ed1565b9050919050565b7f726563697069656e742072657100000000000000000000000000000000000000600082015250565b6000613f4a600d8361339e565b9150613f5582613f14565b602082019050919050565b60006020820190508181036000830152613f7981613f3d565b9050919050565b7f726f79616c747920746f6f206869676800000000000000000000000000000000600082015250565b6000613fb660108361339e565b9150613fc182613f80565b602082019050919050565b60006020820190508181036000830152613fe581613fa9565b9050919050565b600081905092915050565b600061400282613393565b61400c8185613fec565b935061401c8185602086016133af565b80840191505092915050565b60006140348285613ff7565b91506140408284613ff7565b91508190509392505050565b7f616c7265616479207363616e6e65640000000000000000000000000000000000600082015250565b6000614082600f8361339e565b915061408d8261404c565b602082019050919050565b600060208201905081810360008301526140b181614075565b9050919050565b60008190508160005260206000209050919050565b60006020601f8301049050919050565b600082821b905092915050565b60006008830261411a7fffffffffffffffffffffffffffffffffffffffffffffffffffffffffffffffff826140dd565b61412486836140dd565b95508019841693508086168417925050509392505050565b6000819050919050565b600061416161415c6141578461317e565b61413c565b61317e565b9050919050565b6000819050919050565b61417b83614146565b61418f61418782614168565b8484546140ea565b825550505050565b600090565b6141a4614197565b6141af818484614172565b505050565b5b818110156141d3576141c860008261419c565b6001810190506141b5565b5050565b601f821115614218576141e9816140b8565b6141f2846140cd565b81016020851015614201578190505b61421561420d856140cd565b8301826141b4565b50505b505050565b600082821c905092915050565b600061423b6000198460080261421d565b1980831691505092915050565b6000614254838361422a565b9150826002028217905092915050565b61426d82613393565b67ffffffffffffffff811115614286576142856131cf565b5b6142908254613b08565b61429b8282856141d7565b600060209050601f8311600181146142ce57600084156142bc578287015190505b6142c68582614248565b86555061432e565b601f1984166142dc866140b8565b60005b82811015614304578489015182556001820191506020850194506020810190506142df565b86831015614321578489015161431d601f89168261422a565b8355505b6001600288020188555050505b505050505050565b600060408201905061434b6000830185613461565b6143586020830184613369565b9392505050565b600081519050919050565b600082825260208201905092915050565b60006143868261435f565b614390818561436a565b93506143a08185602086016133af565b6143a9816131be565b840191505092915050565b60006080820190506143c96000830187613461565b6143d66020830186613461565b6143e36040830185613369565b81810360608301526143f5818461437b565b905095945050505050565b60008151905061440f81613091565b92915050565b60006020828403121561442b5761442a61305b565b5b600061443984828501614400565b91505092915050565b60006040820190506144576000830185613461565b61446460208301846134d5565b939250505056fea2646970667358221220ef76613d195c896778b45dc3025bf72c6ff3eacbddf627160dd417e3808b640164736f6c63430008180033",
  "linkReferences": {},
  "deployedLinkReferences": {}
}