{
  "_format": "hh-sol-artifact-1",
  "contractName": "NFTTicket",
  "sourceName": "contracts/NFTTicket.sol",
  "abi": [
    {
      "inputs": [],
      "stateMutability": "nonpayable",
      "type": "constructor"
    },
    {
      "inputs": [],
      "name": "AccessControlBadConfirmation",
      "type": "error"
    },
    {
      "inputs": [
        {
          "internalType": "address",
          "name": "account",
          "type": "address"
        },
        {
          "internalType": "bytes32",
          "name": "neededRole",
          "type": "bytes32"
        }
      ],
      "name": "AccessControlUnauthorizedAccount",
      "type": "error"
    },
    {
      "inputs": [
        {
          "internalType": "uint256",
          "name": "numerator",
          "type": "uint256"
        },
        {
          "internalType": "uint256",
          "name": "denominator",
          "type": "uint256"
        }
      ],
      "name": "ERC2981InvalidDefaultRoyalty",
      "type": "error"
    },
    {
      "inputs": [
        {
          "internalType": "address",
          "name": "receiver",
          "type": "address"
        }
      ],
      "name": "ERC2981InvalidDefaultRoyaltyReceiver",
      "type": "error"
    },
    {
      "inputs": [
        {
          "internalType": "uint256",
          "name": "tokenId",
          "type": "uint256"
        },
        {
          "internalType": "uint256",
          "name": "numerator",
          "type": "uint256"
        },
        {
          "internalType": "uint256",
          "name": "denominator",
          "type": "uint256"
        }
      ],
      "name": "ERC2981InvalidTokenRoyalty",
      "type": "error"
    },
    {
      "inputs": [
        {
          "internalType": "uint256",
          "name": "tokenId",
          "type": "uint256"
        },
        {
          "internalType": "address",
          "name": "receiver",
          "type": "address"
        }
      ],
      "name": "ERC2981InvalidTokenRoyaltyReceiver",
      "type": "error"
    },
    {
      "inputs": [
        {
          "internalType": "address",
          "name": "sender",
          "type": "address"
        },
        {
          "internalType": "uint256",
          "name": "tokenId",
          "type": "uint256"
        },
        {
          "internalType": "address",
          "name": "owner",
          "type": "address"
        }
      ],
      "name": "ERC721IncorrectOwner",
      "type": "error"
    },
    {
      "inputs": [
        {
          "internalType": "address",
          "name": "operator",
          "type": "address"
        },
        {
          "internalType": "uint256",
          "name": "tokenId",
          "type": "uint256"
        }
      ],
      "name": "ERC721InsufficientApproval",
      "type": "error"
    },
    {
      "inputs": [
        {
          "internalType": "address",
          "name": "approver",
          "type": "address"
        }
      ],
      "name": "ERC721InvalidApprover",
      "type": "error"
    },
    {
      "inputs": [
        {
          "internalType": "address",
          "name": "operator",
          "type": "address"
        }
      ],
      "name": "ERC721InvalidOperator",
      "type": "error"
    },
    {
      "inputs": [
        {
          "internalType": "address",
          "name": "owner",
          "type": "address"
        }
      ],
      "name": "ERC721InvalidOwner",
      "type": "error"
    },
    {
      "inputs": [
        {
          "internalType": "address",
          "name": "receiver",
          "type": "address"
        }
      ],
      "name": "ERC721InvalidReceiver",
      "type": "error"
    },
    {
      "inputs": [
        {
          "internalType": "address",
          "name": "sender",
          "type": "address"
        }
      ],
      "name": "ERC721InvalidSender",
      "type": "error"
    },
    {
      "inputs": [
        {
          "internalType": "uint256",
          "name": "tokenId",
          "type": "uint256"
        }
      ],
      "name": "ERC721NonexistentToken",
      "type": "error"
    },
    {
      "inputs": [],
      "name": "EnforcedPause",
      "type": "error"
    },
    {
      "inputs": [],
      "name": "ExpectedPause",
      "type": "error"
    },
    {
      "inputs": [],
      "name": "ReentrancyGuardReentrantCall",
      "type": "error"
    },
    {
      "anonymous": false,
      "inputs": [
        {
          "indexed": true,
          "internalType": "address",
          "name": "owner",
          "type": "address"
        },
        {
          "indexed": true,
          "internalType": "address",
          "name": "approved",
          "type": "address"
        },
        {
          "indexed": true,
          "internalType": "uint256",
          "name": "tokenId",
          "type": "uint256"
        }
      ],
      "name": "Approval",
      "type": "event"
    },
    {
      "anonymous": false,
      "inputs": [
        {
          "indexed": true,
          "internalType": "address",
          "name": "owner",
          "type": "address"
        },
        {
          "indexed": true,
          "internalType": "address",
          "name": "operator",
          "type": "address"
        },
        {
          "indexed": false,
          "internalType": "bool",
          "name": "approved",
          "type": "bool"
        }
      ],
      "name": "ApprovalForAll",
      "type": "event"
    },
    {
      "anonymous": false,
      "inputs": [
        {
          "indexed": false,
          "internalType": "uint256",
          "name": "_fromTokenId",
          "type": "uint256"
        },
        {
          "indexed": false,
          "internalType": "uint256",
          "name": "_toTokenId",
          "type": "uint256"
        }
      ],
      "name": "BatchMetadataUpdate",
      "type": "event"
    },
    {
      "anonymous": false,
      "inputs": [
        {
          "indexed": true,
          "internalType": "address",
          "name": "account",
          "type": "address"
        }
      ],
      "name": "ContractPaused",
      "type": "event"
    },
    {
      "anonymous": false,
      "inputs": [
        {
          "indexed": true,
          "internalType": "address",
          "name": "account",
          "type": "address"
        }
      ],
      "name": "ContractUnpaused",
      "type": "event"
    },
    {
      "anonymous": false,
      "inputs": [
        {
          "indexed": false,
          "internalType": "uint256",
          "name": "_tokenId",
          "type": "uint256"
        }
      ],
      "name": "MetadataUpdate",
      "type": "event"
    },
    {
      "anonymous": false,
      "inputs": [
        {
          "indexed": false,
          "internalType": "address",
          "name": "account",
          "type": "address"
        }
      ],
      "name": "Paused",
      "type": "event"
    },
    {
      "anonymous": false,
      "inputs": [
        {
          "indexed": true,
          "internalType": "bytes32",
          "name": "role",
          "type": "bytes32"
        },
        {
          "indexed": true,
          "internalType": "bytes32",
          "name": "previousAdminRole",
          "type": "bytes32"
        },
        {
          "indexed": true,
          "internalType": "bytes32",
          "name": "newAdminRole",
          "type": "bytes32"
        }
      ],
      "name": "RoleAdminChanged",
      "type": "event"
    },
    {
      "anonymous": false,
      "inputs": [
        {
          "indexed": true,
          "internalType": "bytes32",
          "name": "role",
          "type": "bytes32"
        },
        {
          "indexed": true,
          "internalType": "address",
          "name": "account",
          "type": "address"
        },
        {
          "indexed": true,
          "internalType": "address",
          "name": "sender",
          "type": "address"
        }
      ],
      "name": "RoleGranted",
      "type": "event"
    },
    {
      "anonymous": false,
      "inputs": [
        {
          "indexed": true,
          "internalType": "bytes32",
          "name": "role",
          "type": "bytes32"
        },
        {
          "indexed": true,
          "internalType": "address",
          "name": "account",
          "type": "address"
        },
        {
          "indexed": true,
          "internalType": "address",
          "name": "sender",
          "type": "address"
        }
      ],
      "name": "RoleRevoked",
      "type": "event"
    },
    {
      "anonymous": false,
      "inputs": [
        {
          "indexed": true,
          "internalType": "uint256",
          "name": "tokenId",
          "type": "uint256"
        },
        {
          "indexed": false,
          "internalType": "uint256",
          "name": "price",
          "type": "uint256"
        }
      ],
      "name": "TicketListed",
      "type": "event"
    },
    {
      "anonymous": false,
      "inputs": [
        {
          "indexed": true,
          "internalType": "uint256",
          "name": "tokenId",
          "type": "uint256"
        },
        {
          "indexed": true,
          "internalType": "address",
          "name": "owner",
          "type": "address"
        },
        {
          "indexed": false,
          "internalType": "uint256",
          "name": "eventId",
          "type": "uint256"
        },
        {
          "indexed": false,
          "internalType": "uint256",
          "name": "price",
          "type": "uint256"
        },
        {
          "indexed": false,
          "internalType": "uint256",
          "name": "eventDate",
          "type": "uint256"
        }
      ],
      "name": "TicketMinted",
      "type": "event"
    },
    {
      "anonymous": false,
      "inputs": [
        {
          "indexed": true,
          "internalType": "uint256",
          "name": "tokenId",
          "type": "uint256"
        },
        {
          "indexed": true,
          "internalType": "address",
          "name": "from",
          "type": "address"
        },
        {
          "indexed": true,
          "internalType": "address",
          "name": "to",
          "type": "address"
        },
        {
          "indexed": false,
          "internalType": "uint256",
          "name": "price",
          "type": "uint256"
        }
      ],
      "name": "TicketSold",
      "type": "event"
    },
    {
      "anonymous": false,
      "inputs": [
        {
          "indexed": true,
          "internalType": "uint256",
          "name": "tokenId",
          "type": "uint256"
        },
        {
          "indexed": true,
          "internalType": "address",
          "name": "validator",
          "type": "address"
        }
      ],
      "name": "TicketValidated",
      "type": "event"
    },
    {
      "anonymous": false,
      "inputs": [
        {
          "indexed": true,
          "internalType": "address",
          "name": "from",
          "type": "address"
        },
        {
          "indexed": true,
          "internalType": "address",
          "name": "to",
          "type": "address"
        },
        {
          "indexed": true,
          "internalType": "uint256",
          "name": "tokenId",
          "type": "uint256"
        }
      ],
      "name": "Transfer",
      "type": "event"
    },
    {
      "anonymous": false,
      "inputs": [
        {
          "indexed": false,
          "internalType": "address",
          "name": "account",
          "type": "address"
        }
      ],
      "name": "Unpaused",
      "type": "event"
    },
    {
      "inputs": [],
      "name": "DEFAULT_ADMIN_ROLE",
      "outputs": [
        {
          "internalType": "bytes32",
          "name": "",
          "type": "bytes32"
        }
      ],
      "stateMutability": "view",
      "type": "function"
    },
    {
      "inputs": [],
      "name": "MAX_BUYS_PER_BLOCK",
      "outputs": [
        {
          "internalType": "uint256",
          "name": "",
          "type": "uint256"
        }
      ],
      "stateMutability": "view",
      "type": "function"
    },
    {
      "inputs": [],
      "name": "MAX_MINTS_PER_ADDRESS",
      "outputs": [
        {
          "internalType": "uint256",
          "name": "",
          "type": "uint256"
        }
      ],
      "stateMutability": "view",
      "type": "function"
    },
    {
      "inputs": [],
      "name": "MAX_RESALE_MULTIPLIER",
      "outputs": [
        {
          "internalType": "uint256",
          "name": "",
          "type": "uint256"
        }
      ],
      "stateMutability": "view",
      "type": "function"
    },
    {
      "inputs": [],
      "name": "MINTER_ROLE",
      "outputs": [
        {
          "internalType": "bytes32",
          "name": "",
          "type": "bytes32"
        }
      ],
      "stateMutability": "view",
      "type": "function"
    },
    {
      "inputs": [],
      "name": "MIN_RESALE_PRICE",
      "outputs": [
        {
          "internalType": "uint256",
          "name": "",
          "type": "uint256"
        }
      ],
      "stateMutability": "view",
      "type": "function"
    },
    {
      "inputs": [],
      "name": "RATE_LIMIT_WINDOW",
      "outputs": [
        {
          "internalType": "uint256",
          "name": "",
          "type": "uint256"
        }
      ],
      "stateMutability": "view",
      "type": "function"
    },
    {
      "inputs": [],
      "name": "RESALE_COOLDOWN",
      "outputs": [
        {
          "internalType": "uint256",
          "name": "",
          "type": "uint256"
        }
      ],
      "stateMutability": "view",
      "type": "function"
    },
    {
      "inputs": [],
      "name": "VALIDATOR_ROLE",
      "outputs": [
        {
          "internalType": "bytes32",
          "name": "",
          "type": "bytes32"
        }
      ],
      "stateMutability": "view",
      "type": "function"
    },
    {
      "inputs": [
        {
          "internalType": "address",
          "name": "to",
          "type": "address"
        },
        {
          "internalType": "uint256",
          "name": "tokenId",
          "type": "uint256"
        }
      ],
      "name": "approve",
      "outputs": [],
      "stateMutability": "nonpayable",
      "type": "function"
    },
    {
      "inputs": [
        {
          "internalType": "address",
          "name": "owner",
          "type": "address"
        }
      ],
      "name": "balanceOf",
      "outputs": [
        {
          "internalType": "uint256",
          "name": "",
          "type": "uint256"
        }
      ],
      "stateMutability": "view",
      "type": "function"
    },
    {
      "inputs": [
        {
          "internalType": "address",
          "name": "",
          "type": "address"
        }
      ],
      "name": "buyCount",
      "outputs": [
        {
          "internalType": "uint256",
          "name": "",
          "type": "uint256"
        }
      ],
      "stateMutability": "view",
      "type": "function"
    },
    {
      "inputs": [
        {
          "internalType": "uint256",
          "name": "tokenId",
          "type": "uint256"
        }
      ],
      "name": "buyTicket",
      "outputs": [],
      "stateMutability": "payable",
      "type": "function"
    },
    {
      "inputs": [
        {
          "internalType": "uint256",
          "name": "tokenId",
          "type": "uint256"
        }
      ],
      "name": "getApproved",
      "outputs": [
        {
          "internalType": "address",
          "name": "",
          "type": "address"
        }
      ],
      "stateMutability": "view",
      "type": "function"
    },
    {
      "inputs": [
        {
          "internalType": "bytes32",
          "name": "role",
          "type": "bytes32"
        }
      ],
      "name": "getRoleAdmin",
      "outputs": [
        {
          "internalType": "bytes32",
          "name": "",
          "type": "bytes32"
        }
      ],
      "stateMutability": "view",
      "type": "function"
    },
    {
      "inputs": [
        {
          "internalType": "uint256",
          "name": "tokenId",
          "type": "uint256"
        }
      ],
      "name": "getTicketInfo",
      "outputs": [
        {
          "internalType": "uint256",
          "name": "eventId",
          "type": "uint256"
        },
        {
          "internalType": "uint256",
          "name": "price",
          "type": "uint256"
        },
        {
          "internalType": "bool",
          "name": "forSale",
          "type": "bool"
        },
        {
          "internalType": "uint256",
          "name": "eventDate",
          "type": "uint256"
        },
        {
          "internalType": "bool",
          "name": "used",
          "type": "bool"
        }
      ],
      "stateMutability": "view",
      "type": "function"
    },
    {
      "inputs": [
        {
          "internalType": "bytes32",
          "name": "role",
          "type": "bytes32"
        },
        {
          "internalType": "address",
          "name": "account",
          "type": "address"
        }
      ],
      "name": "grantRole",
      "outputs": [],
      "stateMutability": "nonpayable",
      "type": "function"
    },
    {
      "inputs": [
        {
          "internalType": "bytes32",
          "name": "role",
          "type": "bytes32"
        },
        {
          "internalType": "address",
          "name": "account",
          "type": "address"
        }
      ],
      "name": "hasRole",
      "outputs": [
        {
          "internalType": "bool",
          "name": "",
          "type": "bool"
        }
      ],
      "stateMutability": "view",
      "type": "function"
    },
    {
      "inputs": [
        {
          "internalType": "address",
          "name": "owner",
          "type": "address"
        },
        {
          "internalType": "address",
          "name": "operator",
          "type": "address"
        }
      ],
      "name": "isApprovedForAll",
      "outputs": [
        {
          "internalType": "bool",
          "name": "",
          "type": "bool"
        }
      ],
      "stateMutability": "view",
      "type": "function"
    },
    {
      "inputs": [
        {
          "internalType": "address",
          "name": "",
          "type": "address"
        }
      ],
      "name": "lastBuyWindow",
      "outputs": [
        {
          "internalType": "uint256",
          "name": "",
          "type": "uint256"
        }
      ],
      "stateMutability": "view",
      "type": "function"
    },
    {
      "inputs": [
        {
          "internalType": "address",
          "name": "",
          "type": "address"
        }
      ],
      "name": "mintCount",
      "outputs": [
        {
          "internalType": "uint256",
          "name": "",
          "type": "uint256"
        }
      ],
      "stateMutability": "view",
      "type": "function"
    },
    {
      "inputs": [
        {
          "internalType": "address",
          "name": "to",
          "type": "address"
        },
        {
          "internalType": "string",
          "name": "uri",
          "type": "string"
        },
        {
          "internalType": "uint256",
          "name": "eventId",
          "type": "uint256"
        },
        {
          "internalType": "uint256",
          "name": "price",
          "type": "uint256"
        },
        {
          "internalType": "uint256",
          "name": "eventDate",
          "type": "uint256"
        }
      ],
      "name": "mintTicket",
      "outputs": [],
      "stateMutability": "nonpayable",
      "type": "function"
    },
    {
      "inputs": [],
      "name": "name",
      "outputs": [
        {
          "internalType": "string",
          "name": "",
          "type": "string"
        }
      ],
      "stateMutability": "view",
      "type": "function"
    },
    {
      "inputs": [
        {
          "internalType": "uint256",
          "name": "tokenId",
          "type": "uint256"
        }
      ],
      "name": "ownerOf",
      "outputs": [
        {
          "internalType": "address",
          "name": "",
          "type": "address"
        }
      ],
      "stateMutability": "view",
      "type": "function"
    },
    {
      "inputs": [],
      "name": "pause",
      "outputs": [],
      "stateMutability": "nonpayable",
      "type": "function"
    },
    {
      "inputs": [],
      "name": "paused",
      "outputs": [
        {
          "internalType": "bool",
          "name": "",
          "type": "bool"
        }
      ],
      "stateMutability": "view",
      "type": "function"
    },
    {
      "inputs": [
        {
          "internalType": "bytes32",
          "name": "role",
          "type": "bytes32"
        },
        {
          "internalType": "address",
          "name": "callerConfirmation",
          "type": "address"
        }
      ],
      "name": "renounceRole",
      "outputs": [],
      "stateMutability": "nonpayable",
      "type": "function"
    },
    {
      "inputs": [
        {
          "internalType": "uint256",
          "name": "tokenId",
          "type": "uint256"
        },
        {
          "internalType": "uint256",
          "name": "price",
          "type": "uint256"
        }
      ],
      "name": "resellTicket",
      "outputs": [],
      "stateMutability": "nonpayable",
      "type": "function"
    },
    {
      "inputs": [
        {
          "internalType": "bytes32",
          "name": "role",
          "type": "bytes32"
        },
        {
          "internalType": "address",
          "name": "account",
          "type": "address"
        }
      ],
      "name": "revokeRole",
      "outputs": [],
      "stateMutability": "nonpayable",
      "type": "function"
    },
    {
      "inputs": [
        {
          "internalType": "uint256",
          "name": "tokenId",
          "type": "uint256"
        },
        {
          "internalType": "uint256",
          "name": "salePrice",
          "type": "uint256"
        }
      ],
      "name": "royaltyInfo",
      "outputs": [
        {
          "internalType": "address",
          "name": "receiver",
          "type": "address"
        },
        {
          "internalType": "uint256",
          "name": "amount",
          "type": "uint256"
        }
      ],
      "stateMutability": "view",
      "type": "function"
    },
    {
      "inputs": [
        {
          "internalType": "address",
          "name": "from",
          "type": "address"
        },
        {
          "internalType": "address",
          "name": "to",
          "type": "address"
        },
        {
          "internalType": "uint256",
          "name": "tokenId",
          "type": "uint256"
        }
      ],
      "name": "safeTransferFrom",
      "outputs": [],
      "stateMutability": "nonpayable",
      "type": "function"
    },
    {
      "inputs": [
        {
          "internalType": "address",
          "name": "from",
          "type": "address"
        },
        {
          "internalType": "address",
          "name": "to",
          "type": "address"
        },
        {
          "internalType": "uint256",
          "name": "tokenId",
          "type": "uint256"
        },
        {
          "internalType": "bytes",
          "name": "data",
          "type": "bytes"
        }
      ],
      "name": "safeTransferFrom",
      "outputs": [],
      "stateMutability": "nonpayable",
      "type": "function"
    },
    {
      "inputs": [
        {
          "internalType": "address",
          "name": "operator",
          "type": "address"
        },
        {
          "internalType": "bool",
          "name": "approved",
          "type": "bool"
        }
      ],
      "name": "setApprovalForAll",
      "outputs": [],
      "stateMutability": "nonpayable",
      "type": "function"
    },
    {
      "inputs": [
        {
          "internalType": "bytes4",
          "name": "interfaceId",
          "type": "bytes4"
        }
      ],
      "name": "supportsInterface",
      "outputs": [
        {
          "internalType": "bool",
          "name": "",
          "type": "bool"
        }
      ],
      "stateMutability": "view",
      "type": "function"
    },
    {
      "inputs": [],
      "name": "symbol",
      "outputs": [
        {
          "internalType": "string",
          "name": "",
          "type": "string"
        }
      ],
      "stateMutability": "view",
      "type": "function"
    },
    {
      "inputs": [
        {
          "internalType": "uint256",
          "name": "",
          "type": "uint256"
        }
      ],
      "name": "tickets",
      "outputs": [
        {
          "internalType": "uint256",
          "name": "eventId",
          "type": "uint256"
        },
        {
          "internalType": "uint256",
          "name": "price",
          "type": "uint256"
        },
        {
          "internalType": "bool",
          "name": "forSale",
          "type": "bool"
        },
        {
          "internalType": "uint256",
          "name": "eventDate",
          "type": "uint256"
        },
        {
          "internalType": "uint256",
          "name": "lastResaleTime",
          "type": "uint256"
        },
        {
          "internalType": "bool",
          "name": "used",
          "type": "bool"
        }
      ],
      "stateMutability": "view",
      "type": "function"
    },
    {
      "inputs": [
        {
          "internalType": "uint256",
          "name": "tokenId",
          "type": "uint256"
        }
      ],
      "name": "tokenURI",
      "outputs": [
        {
          "internalType": "string",
          "name": "",
          "type": "string"
        }
      ],
      "stateMutability": "view",
      "type": "function"
    },
    {
      "inputs": [
        {
          "internalType": "address",
          "name": "from",
          "type": "address"
        },
        {
          "internalType": "address",
          "name": "to",
          "type": "address"
        },
        {
          "internalType": "uint256",
          "name": "tokenId",
          "type": "uint256"
        }
      ],
      "name": "transferFrom",
      "outputs": [],
      "stateMutability": "nonpayable",
      "type": "function"
    },
    {
      "inputs": [],
      "name": "unpause",
      "outputs": [],
      "stateMutability": "nonpayable",
      "type": "function"
    },
    {
      "inputs": [
        {
          "internalType": "uint256",
          "name": "tokenId",
          "type": "uint256"
        }
      ],
      "name": "validateTicket",
      "outputs": [],
      "stateMutability": "nonpayable",
      "type": "function"
    },
    {
      "inputs": [],
      "name": "withdraw",
      "outputs": [],
      "stateMutability": "nonpayable",
      "type": "function"
    }
  ],
  "bytecode": "0x60806040523480156200001157600080fd5b506040518060400160405280600981526020017f4e46545469636b657400000000000000000000000000000000000000000000008152506040518060400160405280600581526020017f4e4654495800000000000000000000000000000000000000000000000000000081525081600090816200008f9190620006ba565b508060019081620000a19190620006ba565b5050506001600881905550620000c16000801b336200010f60201b60201c565b50620000f47f9f2df0fed2c77648de5860a4cc508cd0818c85b8b8a1ab4ceeef8d981c8956a6336200010f60201b60201c565b5062000109336101f46200021360201b60201c565b62000892565b6000620001238383620003c360201b60201c565b620002085760016007600085815260200190815260200160002060000160008473ffffffffffffffffffffffffffffffffffffffff1673ffffffffffffffffffffffffffffffffffffffff16815260200190815260200160002060006101000a81548160ff021916908315150217905550620001a46200042e60201b60201c565b73ffffffffffffffffffffffffffffffffffffffff168273ffffffffffffffffffffffffffffffffffffffff16847f2f8788117e7eff1d82e926ec794901d17c78024a50270940304540a733656f0d60405160405180910390a4600190506200020d565b600090505b92915050565b6000620002256200043660201b60201c565b6bffffffffffffffffffffffff16905080826bffffffffffffffffffffffff1611156200028d5781816040517f6f483d090000000000000000000000000000000000000000000000000000000081526004016200028492919062000803565b60405180910390fd5b600073ffffffffffffffffffffffffffffffffffffffff168373ffffffffffffffffffffffffffffffffffffffff1603620003025760006040517fb6d9900a000000000000000000000000000000000000000000000000000000008152600401620002f9919062000875565b60405180910390fd5b60405180604001604052808473ffffffffffffffffffffffffffffffffffffffff168152602001836bffffffffffffffffffffffff16815250600960008201518160000160006101000a81548173ffffffffffffffffffffffffffffffffffffffff021916908373ffffffffffffffffffffffffffffffffffffffff16021790555060208201518160000160146101000a8154816bffffffffffffffffffffffff02191690836bffffffffffffffffffffffff160217905550905050505050565b60006007600084815260200190815260200160002060000160008373ffffffffffffffffffffffffffffffffffffffff1673ffffffffffffffffffffffffffffffffffffffff16815260200190815260200160002060009054906101000a900460ff16905092915050565b600033905090565b6000612710905090565b600081519050919050565b7f4e487b7100000000000000000000000000000000000000000000000000000000600052604160045260246000fd5b7f4e487b7100000000000000000000000000000000000000000000000000000000600052602260045260246000fd5b60006002820490506001821680620004c257607f821691505b602082108103620004d857620004d76200047a565b5b50919050565b60008190508160005260206000209050919050565b60006020601f8301049050919050565b600082821b905092915050565b600060088302620005427fffffffffffffffffffffffffffffffffffffffffffffffffffffffffffffffff8262000503565b6200054e868362000503565b95508019841693508086168417925050509392505050565b6000819050919050565b6000819050919050565b60006200059b620005956200058f8462000566565b62000570565b62000566565b9050919050565b6000819050919050565b620005b7836200057a565b620005cf620005c682620005a2565b84845462000510565b825550505050565b600090565b620005e6620005d7565b620005f3818484620005ac565b505050565b5b818110156200061b576200060f600082620005dc565b600181019050620005f9565b5050565b601f8211156200066a576200063481620004de565b6200063f84620004f3565b810160208510156200064f578190505b620006676200065e85620004f3565b830182620005f8565b50505b505050565b600082821c905092915050565b60006200068f600019846008026200066f565b1980831691505092915050565b6000620006aa83836200067c565b9150826002028217905092915050565b620006c58262000440565b67ffffffffffffffff811115620006e157620006e06200044b565b5b620006ed8254620004a9565b620006fa8282856200061f565b600060209050601f8311600181146200073257600084156200071d578287015190505b6200072985826200069c565b86555062000799565b601f1984166200074286620004de565b60005b828110156200076c5784890151825560018201915060208501945060208101905062000745565b868310156200078c578489015162000788601f8916826200067c565b8355505b6001600288020188555050505b505050505050565b60006bffffffffffffffffffffffff82169050919050565b6000620007da620007d4620007ce84620007a1565b62000570565b62000566565b9050919050565b620007ec81620007b9565b82525050565b620007fd8162000566565b82525050565b60006040820190506200081a6000830185620007e1565b620008296020830184620007f2565b9392505050565b600073ffffffffffffffffffffffffffffffffffffffff82169050919050565b60006200085d8262000830565b9050919050565b6200086f8162000850565b82525050565b60006020820190506200088c600083018462000864565b92915050565b614ef080620008a26000396000f3fe6080604052600436106102465760003560e01c80637033510e11610139578063a5346f1f116100b6578063c87b56dd1161007a578063c87b56dd14610887578063d5391393146108c4578063d547741f146108ef578063e985e9c514610918578063ed9ec88814610955578063ff99a0631461099257610246565b8063a5346f1f146107a0578063b874ff43146107dd578063b88d4fde14610808578063c446096714610831578063c49baebe1461085c57610246565b806391d14854116100fd57806391d14854146106a757806395d89b41146106e45780639fefe7f41461070f578063a217fddf1461074c578063a22cb4651461077757610246565b80637033510e146105d457806370a08231146105ff5780637130dfc91461063c5780638456cb59146106675780638d29f5da1461067e57610246565b8063348e9913116101c757806350b447121161018b57806350b44712146104e35780635c975abb146105255780635e483cca146105505780636352211e1461057b57806367dd74ca146105b857610246565b8063348e99131461043a57806336568abe146104635780633ccfd60b1461048c5780633f4ba83a146104a357806342842e0e146104ba57610246565b806323b872dd1161020e57806323b872dd14610342578063248a9ca31461036b57806329874627146103a85780632a55205a146103d35780632f2ff15d1461041157610246565b806301ffc9a71461024b578063054ae7df1461028857806306fdde03146102b1578063081812fc146102dc578063095ea7b314610319575b600080fd5b34801561025757600080fd5b50610272600480360381019061026d9190613833565b6109d3565b60405161027f919061387b565b60405180910390f35b34801561029457600080fd5b506102af60048036038101906102aa91906138cc565b6109e5565b005b3480156102bd57600080fd5b506102c6610b98565b6040516102d39190613989565b60405180910390f35b3480156102e857600080fd5b5061030360048036038101906102fe91906138cc565b610c2a565b60405161031091906139ec565b60405180910390f35b34801561032557600080fd5b50610340600480360381019061033b9190613a33565b610c46565b005b34801561034e57600080fd5b5061036960048036038101906103649190613a73565b610c5c565b005b34801561037757600080fd5b50610392600480360381019061038d9190613afc565b610d5e565b60405161039f9190613b38565b60405180910390f35b3480156103b457600080fd5b506103bd610d7e565b6040516103ca9190613b62565b60405180910390f35b3480156103df57600080fd5b506103fa60048036038101906103f59190613b7d565b610d83565b604051610408929190613bbd565b60405180910390f35b34801561041d57600080fd5b5061043860048036038101906104339190613be6565b610eb3565b005b34801561044657600080fd5b50610461600480360381019061045c9190613b7d565b610ed5565b005b34801561046f57600080fd5b5061048a60048036038101906104859190613be6565b611174565b005b34801561049857600080fd5b506104a16111ef565b005b3480156104af57600080fd5b506104b86112bc565b005b3480156104c657600080fd5b506104e160048036038101906104dc9190613a73565b611317565b005b3480156104ef57600080fd5b5061050a600480360381019061050591906138cc565b611337565b60405161051c96959493929190613c26565b60405180910390f35b34801561053157600080fd5b5061053a61138d565b604051610547919061387b565b60405180910390f35b34801561055c57600080fd5b506105656113a4565b6040516105729190613b62565b60405180910390f35b34801561058757600080fd5b506105a2600480360381019061059d91906138cc565b6113aa565b6040516105af91906139ec565b60405180910390f35b6105d260048036038101906105cd91906138cc565b6113bc565b005b3480156105e057600080fd5b506105e961197b565b6040516105f69190613b62565b60405180910390f35b34801561060b57600080fd5b5061062660048036038101906106219190613c87565b611986565b6040516106339190613b62565b60405180910390f35b34801561064857600080fd5b50610651611a40565b60405161065e9190613b62565b60405180910390f35b34801561067357600080fd5b5061067c611a46565b005b34801561068a57600080fd5b506106a560048036038101906106a09190613de9565b611aa1565b005b3480156106b357600080fd5b506106ce60048036038101906106c99190613be6565b611de2565b6040516106db919061387b565b60405180910390f35b3480156106f057600080fd5b506106f9611e4d565b6040516107069190613989565b60405180910390f35b34801561071b57600080fd5b5061073660048036038101906107319190613c87565b611edf565b6040516107439190613b62565b60405180910390f35b34801561075857600080fd5b50610761611ef7565b60405161076e9190613b38565b60405180910390f35b34801561078357600080fd5b5061079e60048036038101906107999190613eac565b611efe565b005b3480156107ac57600080fd5b506107c760048036038101906107c29190613c87565b611f14565b6040516107d49190613b62565b60405180910390f35b3480156107e957600080fd5b506107f2611f2c565b6040516107ff9190613b62565b60405180910390f35b34801561081457600080fd5b5061082f600480360381019061082a9190613f8d565b611f31565b005b34801561083d57600080fd5b50610846611f56565b6040516108539190613b62565b60405180910390f35b34801561086857600080fd5b50610871611f5b565b60405161087e9190613b38565b60405180910390f35b34801561089357600080fd5b506108ae60048036038101906108a991906138cc565b611f7f565b6040516108bb9190613989565b60405180910390f35b3480156108d057600080fd5b506108d9612092565b6040516108e69190613b38565b60405180910390f35b3480156108fb57600080fd5b5061091660048036038101906109119190613be6565b6120b6565b005b34801561092457600080fd5b5061093f600480360381019061093a9190614010565b6120d8565b60405161094c919061387b565b60405180910390f35b34801561096157600080fd5b5061097c60048036038101906109779190613c87565b61216c565b6040516109899190613b62565b60405180910390f35b34801561099e57600080fd5b506109b960048036038101906109b491906138cc565b612184565b6040516109ca959493929190614050565b60405180910390f35b60006109de82612238565b9050919050565b7f21702c8af46127c7fa207f89d0b0a8441bb32959a0ac7df790e9ab1a25c98926610a0f816122b2565b610a176122c6565b600073ffffffffffffffffffffffffffffffffffffffff16610a38836113aa565b73ffffffffffffffffffffffffffffffffffffffff1603610a8e576040517f08c379a0000000000000000000000000000000000000000000000000000000008152600401610a85906140ef565b60405180910390fd5b600d600083815260200190815260200160002060050160009054906101000a900460ff1615610af2576040517f08c379a0000000000000000000000000000000000000000000000000000000008152600401610ae99061415b565b60405180910390fd5b6001600d600084815260200190815260200160002060050160006101000a81548160ff0219169083151502179055506000600d600084815260200190815260200160002060020160006101000a81548160ff0219169083151502179055503373ffffffffffffffffffffffffffffffffffffffff16827f7523a5038b0221808d5987c7a4c3a6d9074ed76bf247f76665b2ed493e8fd1fb60405160405180910390a35050565b606060008054610ba7906141aa565b80601f0160208091040260200160405190810160405280929190818152602001828054610bd3906141aa565b8015610c205780601f10610bf557610100808354040283529160200191610c20565b820191906000526020600020905b815481529060010190602001808311610c0357829003601f168201915b5050505050905090565b6000610c3582612307565b50610c3f8261238f565b9050919050565b610c588282610c536123cc565b6123d4565b5050565b600073ffffffffffffffffffffffffffffffffffffffff168273ffffffffffffffffffffffffffffffffffffffff1603610cce5760006040517f64a0ae92000000000000000000000000000000000000000000000000000000008152600401610cc591906139ec565b60405180910390fd5b6000610ce28383610cdd6123cc565b6123e6565b90508373ffffffffffffffffffffffffffffffffffffffff168173ffffffffffffffffffffffffffffffffffffffff1614610d58578382826040517f64283d7b000000000000000000000000000000000000000000000000000000008152600401610d4f939291906141db565b60405180910390fd5b50505050565b600060076000838152602001908152602001600020600101549050919050565b600581565b6000806000600a6000868152602001908152602001600020905060008160000160009054906101000a900473ffffffffffffffffffffffffffffffffffffffff16905060008260000160149054906101000a90046bffffffffffffffffffffffff169050600073ffffffffffffffffffffffffffffffffffffffff168273ffffffffffffffffffffffffffffffffffffffff1603610e6457600960000160009054906101000a900473ffffffffffffffffffffffffffffffffffffffff169150600960000160149054906101000a90046bffffffffffffffffffffffff1690505b6000610e6e612600565b6bffffffffffffffffffffffff16826bffffffffffffffffffffffff1688610e969190614241565b610ea091906142b2565b9050828195509550505050509250929050565b610ebc82610d5e565b610ec5816122b2565b610ecf838361260a565b50505050565b610edd6122c6565b3373ffffffffffffffffffffffffffffffffffffffff16610efd836113aa565b73ffffffffffffffffffffffffffffffffffffffff1614610f53576040517f08c379a0000000000000000000000000000000000000000000000000000000008152600401610f4a9061432f565b60405180910390fd5b66038d7ea4c68000811015610f9d576040517f08c379a0000000000000000000000000000000000000000000000000000000008152600401610f949061439b565b60405180910390fd5b6000600d6000848152602001908152602001600020905080600301544210610ffa576040517f08c379a0000000000000000000000000000000000000000000000000000000008152600401610ff190614407565b60405180910390fd5b8060050160009054906101000a900460ff161561104c576040517f08c379a000000000000000000000000000000000000000000000000000000000815260040161104390614473565b60405180910390fd5b6000816004015414806110705750610e10816004015461106c9190614493565b4210155b6110af576040517f08c379a00000000000000000000000000000000000000000000000000000000081526004016110a690614513565b60405180910390fd5b6000600582600101546110c29190614241565b905080831115611107576040517f08c379a00000000000000000000000000000000000000000000000000000000081526004016110fe9061457f565b60405180910390fd5b82826001018190555060018260020160006101000a81548160ff021916908315150217905550428260040181905550837fbca2f6391cafd6d28d39261ba883dd74090c618befb806e74ef434778bb2f7ed846040516111669190613b62565b60405180910390a250505050565b61117c6123cc565b73ffffffffffffffffffffffffffffffffffffffff168173ffffffffffffffffffffffffffffffffffffffff16146111e0576040517f6697b23200000000000000000000000000000000000000000000000000000000815260040160405180910390fd5b6111ea82826126fc565b505050565b6000801b6111fc816122b2565b6112046127ef565b60003373ffffffffffffffffffffffffffffffffffffffff164760405161122a906145d0565b60006040518083038185875af1925050503d8060008114611267576040519150601f19603f3d011682016040523d82523d6000602084013e61126c565b606091505b50509050806112b0576040517f08c379a00000000000000000000000000000000000000000000000000000000081526004016112a790614631565b60405180910390fd5b506112b9612835565b50565b6000801b6112c9816122b2565b6112d161283f565b3373ffffffffffffffffffffffffffffffffffffffff167f5b65b0c1363b3003db9bcc5e1fd8805a6d6bf5bf6dc9d3431ee4494cd7d1176660405160405180910390a250565b61133283838360405180602001604052806000815250611f31565b505050565b600d6020528060005260406000206000915090508060000154908060010154908060020160009054906101000a900460ff16908060030154908060040154908060050160009054906101000a900460ff16905086565b6000600b60009054906101000a900460ff16905090565b610e1081565b60006113b582612307565b9050919050565b6113c46127ef565b6113cc6122c6565b6000600d600083815260200190815260200160002090508060050160009054906101000a900460ff1615611435576040517f08c379a000000000000000000000000000000000000000000000000000000000815260040161142c90614473565b60405180910390fd5b8060020160009054906101000a900460ff16611486576040517f08c379a000000000000000000000000000000000000000000000000000000000815260040161147d9061469d565b60405180910390fd5b80600101543410156114cd576040517f08c379a00000000000000000000000000000000000000000000000000000000081526004016114c490614709565b60405180910390fd5b80600301544210611513576040517f08c379a000000000000000000000000000000000000000000000000000000000815260040161150a90614407565b60405180910390fd5b6000610e104261152391906142b2565b905080601060003373ffffffffffffffffffffffffffffffffffffffff1673ffffffffffffffffffffffffffffffffffffffff16815260200190815260200160002054146115f5576000600f60003373ffffffffffffffffffffffffffffffffffffffff1673ffffffffffffffffffffffffffffffffffffffff1681526020019081526020016000208190555080601060003373ffffffffffffffffffffffffffffffffffffffff1673ffffffffffffffffffffffffffffffffffffffff168152602001908152602001600020819055505b600a600f60003373ffffffffffffffffffffffffffffffffffffffff1673ffffffffffffffffffffffffffffffffffffffff1681526020019081526020016000205410611677576040517f08c379a000000000000000000000000000000000000000000000000000000000815260040161166e90614775565b60405180910390fd5b600f60003373ffffffffffffffffffffffffffffffffffffffff1673ffffffffffffffffffffffffffffffffffffffff16815260200190815260200160002060008154809291906116c790614795565b919050555060006116d7846113aa565b90503373ffffffffffffffffffffffffffffffffffffffff168173ffffffffffffffffffffffffffffffffffffffff1603611747576040517f08c379a000000000000000000000000000000000000000000000000000000000815260040161173e90614829565b60405180910390fd5b60008360010154341115611768578360010154346117659190614849565b90505b60008273ffffffffffffffffffffffffffffffffffffffff168560010154604051611792906145d0565b60006040518083038185875af1925050503d80600081146117cf576040519150601f19603f3d011682016040523d82523d6000602084013e6117d4565b606091505b5050905080611818576040517f08c379a000000000000000000000000000000000000000000000000000000000815260040161180f906148c9565b60405180910390fd5b60008211156118cf5760003373ffffffffffffffffffffffffffffffffffffffff1683604051611847906145d0565b60006040518083038185875af1925050503d8060008114611884576040519150601f19603f3d011682016040523d82523d6000602084013e611889565b606091505b50509050806118cd576040517f08c379a00000000000000000000000000000000000000000000000000000000081526004016118c490614935565b60405180910390fd5b505b6118da8333886128a2565b60008560020160006101000a81548160ff021916908315150217905550600085600401819055503373ffffffffffffffffffffffffffffffffffffffff168373ffffffffffffffffffffffffffffffffffffffff16877f2bbc64d6afd28a753f6c5e4aaa894f1d684c44a0e080167eae104ac8505cfebd88600101546040516119639190613b62565b60405180910390a45050505050611978612835565b50565b66038d7ea4c6800081565b60008073ffffffffffffffffffffffffffffffffffffffff168273ffffffffffffffffffffffffffffffffffffffff16036119f95760006040517f89c62b640000000000000000000000000000000000000000000000000000000081526004016119f091906139ec565b60405180910390fd5b600360008373ffffffffffffffffffffffffffffffffffffffff1673ffffffffffffffffffffffffffffffffffffffff168152602001908152602001600020549050919050565b610e1081565b6000801b611a53816122b2565b611a5b612a0f565b3373ffffffffffffffffffffffffffffffffffffffff167f81990fd9a5c552b8e3677917d8a03c07678f0d2cb68f88b634aca2022e9bd19f60405160405180910390a250565b7f9f2df0fed2c77648de5860a4cc508cd0818c85b8b8a1ab4ceeef8d981c8956a6611acb816122b2565b611ad36122c6565b600073ffffffffffffffffffffffffffffffffffffffff168673ffffffffffffffffffffffffffffffffffffffff1603611b42576040517f08c379a0000000000000000000000000000000000000000000000000000000008152600401611b39906149a1565b60405180910390fd5b66038d7ea4c68000831015611b8c576040517f08c379a0000000000000000000000000000000000000000000000000000000008152600401611b839061439b565b60405180910390fd5b428211611bce576040517f08c379a0000000000000000000000000000000000000000000000000000000008152600401611bc590614a0d565b60405180910390fd5b6064600e60008873ffffffffffffffffffffffffffffffffffffffff1673ffffffffffffffffffffffffffffffffffffffff1681526020019081526020016000205410611c50576040517f08c379a0000000000000000000000000000000000000000000000000000000008152600401611c4790614a79565b60405180910390fd5b600e60008773ffffffffffffffffffffffffffffffffffffffff1673ffffffffffffffffffffffffffffffffffffffff1681526020019081526020016000206000815480929190611ca090614795565b91905055506000600c6000815480929190611cba90614795565b919050559050611cca8782612a72565b611cd48187612b6b565b6040518060c001604052808681526020018581526020016000151581526020018481526020016000815260200160001515815250600d6000838152602001908152602001600020600082015181600001556020820151816001015560408201518160020160006101000a81548160ff021916908315150217905550606082015181600301556080820151816004015560a08201518160050160006101000a81548160ff0219169083151502179055509050508673ffffffffffffffffffffffffffffffffffffffff16817fc071c29a45fd74f9036d74056508383ff81f3bdc65be732b1fcfe79a8e3fc692878787604051611dd193929190614a99565b60405180910390a350505050505050565b60006007600084815260200190815260200160002060000160008373ffffffffffffffffffffffffffffffffffffffff1673ffffffffffffffffffffffffffffffffffffffff16815260200190815260200160002060009054906101000a900460ff16905092915050565b606060018054611e5c906141aa565b80601f0160208091040260200160405190810160405280929190818152602001828054611e88906141aa565b8015611ed55780601f10611eaa57610100808354040283529160200191611ed5565b820191906000526020600020905b815481529060010190602001808311611eb857829003601f168201915b5050505050905090565b600f6020528060005260406000206000915090505481565b6000801b81565b611f10611f096123cc565b8383612bc7565b5050565b60106020528060005260406000206000915090505481565b606481565b611f3c848484610c5c565b611f50611f476123cc565b85858585612d36565b50505050565b600a81565b7f21702c8af46127c7fa207f89d0b0a8441bb32959a0ac7df790e9ab1a25c9892681565b6060611f8a82612307565b506000600660008481526020019081526020016000208054611fab906141aa565b80601f0160208091040260200160405190810160405280929190818152602001828054611fd7906141aa565b80156120245780601f10611ff957610100808354040283529160200191612024565b820191906000526020600020905b81548152906001019060200180831161200757829003601f168201915b505050505090506000612035612ee7565b9050600081510361204a57819250505061208d565b60008251111561207f578082604051602001612067929190614b0c565b6040516020818303038152906040529250505061208d565b61208884612efe565b925050505b919050565b7f9f2df0fed2c77648de5860a4cc508cd0818c85b8b8a1ab4ceeef8d981c8956a681565b6120bf82610d5e565b6120c8816122b2565b6120d283836126fc565b50505050565b6000600560008473ffffffffffffffffffffffffffffffffffffffff1673ffffffffffffffffffffffffffffffffffffffff16815260200190815260200160002060008373ffffffffffffffffffffffffffffffffffffffff1673ffffffffffffffffffffffffffffffffffffffff16815260200190815260200160002060009054906101000a900460ff16905092915050565b600e6020528060005260406000206000915090505481565b600080600080600080600d60008881526020019081526020016000206040518060c001604052908160008201548152602001600182015481526020016002820160009054906101000a900460ff1615151515815260200160038201548152602001600482015481526020016005820160009054906101000a900460ff161515151581525050905080600001518160200151826040015183606001518460a00151955095509550955095505091939590929450565b60007f2a55205a000000000000000000000000000000000000000000000000000000007bffffffffffffffffffffffffffffffffffffffffffffffffffffffff1916827bffffffffffffffffffffffffffffffffffffffffffffffffffffffff191614806122ab57506122aa82612f67565b5b9050919050565b6122c3816122be6123cc565b612fe1565b50565b6122ce61138d565b15612305576040517fd93c066500000000000000000000000000000000000000000000000000000000815260040160405180910390fd5b565b60008061231383613032565b9050600073ffffffffffffffffffffffffffffffffffffffff168173ffffffffffffffffffffffffffffffffffffffff160361238657826040517f7e27328900000000000000000000000000000000000000000000000000000000815260040161237d9190613b62565b60405180910390fd5b80915050919050565b60006004600083815260200190815260200160002060009054906101000a900473ffffffffffffffffffffffffffffffffffffffff169050919050565b600033905090565b6123e1838383600161306f565b505050565b6000806123f284613032565b9050600073ffffffffffffffffffffffffffffffffffffffff168373ffffffffffffffffffffffffffffffffffffffff161461243457612433818486613234565b5b600073ffffffffffffffffffffffffffffffffffffffff168173ffffffffffffffffffffffffffffffffffffffff16146124c55761247660008560008061306f565b6001600360008373ffffffffffffffffffffffffffffffffffffffff1673ffffffffffffffffffffffffffffffffffffffff168152602001908152602001600020600082825403925050819055505b600073ffffffffffffffffffffffffffffffffffffffff168573ffffffffffffffffffffffffffffffffffffffff1614612548576001600360008773ffffffffffffffffffffffffffffffffffffffff1673ffffffffffffffffffffffffffffffffffffffff168152602001908152602001600020600082825401925050819055505b846002600086815260200190815260200160002060006101000a81548173ffffffffffffffffffffffffffffffffffffffff021916908373ffffffffffffffffffffffffffffffffffffffff160217905550838573ffffffffffffffffffffffffffffffffffffffff168273ffffffffffffffffffffffffffffffffffffffff167fddf252ad1be2c89b69c2b068fc378daa952ba7f163c4a11628f55a4df523b3ef60405160405180910390a4809150509392505050565b6000612710905090565b60006126168383611de2565b6126f15760016007600085815260200190815260200160002060000160008473ffffffffffffffffffffffffffffffffffffffff1673ffffffffffffffffffffffffffffffffffffffff16815260200190815260200160002060006101000a81548160ff02191690831515021790555061268e6123cc565b73ffffffffffffffffffffffffffffffffffffffff168273ffffffffffffffffffffffffffffffffffffffff16847f2f8788117e7eff1d82e926ec794901d17c78024a50270940304540a733656f0d60405160405180910390a4600190506126f6565b600090505b92915050565b60006127088383611de2565b156127e45760006007600085815260200190815260200160002060000160008473ffffffffffffffffffffffffffffffffffffffff1673ffffffffffffffffffffffffffffffffffffffff16815260200190815260200160002060006101000a81548160ff0219169083151502179055506127816123cc565b73ffffffffffffffffffffffffffffffffffffffff168273ffffffffffffffffffffffffffffffffffffffff16847ff6391f5c32d9c69d2a47ea670b442974b53935d1edc7fd64eb21e047a839171b60405160405180910390a4600190506127e9565b600090505b92915050565b60026008540361282b576040517f3ee5aeb500000000000000000000000000000000000000000000000000000000815260040160405180910390fd5b6002600881905550565b6001600881905550565b6128476132f8565b6000600b60006101000a81548160ff0219169083151502179055507f5db9ee0a495bf2e6ff9c91a7834c1ba4fdd244a5e8aa4e537bd38aeae4b073aa61288b6123cc565b60405161289891906139ec565b60405180910390a1565b600073ffffffffffffffffffffffffffffffffffffffff168273ffffffffffffffffffffffffffffffffffffffff16036129145760006040517f64a0ae9200000000000000000000000000000000000000000000000000000000815260040161290b91906139ec565b60405180910390fd5b6000612922838360006123e6565b9050600073ffffffffffffffffffffffffffffffffffffffff168173ffffffffffffffffffffffffffffffffffffffff160361299557816040517f7e27328900000000000000000000000000000000000000000000000000000000815260040161298c9190613b62565b60405180910390fd5b8373ffffffffffffffffffffffffffffffffffffffff168173ffffffffffffffffffffffffffffffffffffffff1614612a09578382826040517f64283d7b000000000000000000000000000000000000000000000000000000008152600401612a00939291906141db565b60405180910390fd5b50505050565b612a176122c6565b6001600b60006101000a81548160ff0219169083151502179055507f62e78cea01bee320cd4e420270b5ea74000d11b0c9f74754ebdbfc544b05a258612a5b6123cc565b604051612a6891906139ec565b60405180910390a1565b600073ffffffffffffffffffffffffffffffffffffffff168273ffffffffffffffffffffffffffffffffffffffff1603612ae45760006040517f64a0ae92000000000000000000000000000000000000000000000000000000008152600401612adb91906139ec565b60405180910390fd5b6000612af2838360006123e6565b9050600073ffffffffffffffffffffffffffffffffffffffff168173ffffffffffffffffffffffffffffffffffffffff1614612b665760006040517f73c6ac6e000000000000000000000000000000000000000000000000000000008152600401612b5d91906139ec565b60405180910390fd5b505050565b80600660008481526020019081526020016000209081612b8b9190614cdc565b507ff8e1a15aba9398e019f0b49df1a4fde98ee17ae345cb5f6b5e2c27f5033e8ce782604051612bbb9190613b62565b60405180910390a15050565b600073ffffffffffffffffffffffffffffffffffffffff168273ffffffffffffffffffffffffffffffffffffffff1603612c3857816040517f5b08ba18000000000000000000000000000000000000000000000000000000008152600401612c2f91906139ec565b60405180910390fd5b80600560008573ffffffffffffffffffffffffffffffffffffffff1673ffffffffffffffffffffffffffffffffffffffff16815260200190815260200160002060008473ffffffffffffffffffffffffffffffffffffffff1673ffffffffffffffffffffffffffffffffffffffff16815260200190815260200160002060006101000a81548160ff0219169083151502179055508173ffffffffffffffffffffffffffffffffffffffff168373ffffffffffffffffffffffffffffffffffffffff167f17307eab39ab6107e8899845ad3d59bd9653f200f220920489ca2b5937696c3183604051612d29919061387b565b60405180910390a3505050565b60008373ffffffffffffffffffffffffffffffffffffffff163b1115612ee0578273ffffffffffffffffffffffffffffffffffffffff1663150b7a02868685856040518563ffffffff1660e01b8152600401612d959493929190614e03565b6020604051808303816000875af1925050508015612dd157506040513d601f19601f82011682018060405250810190612dce9190614e64565b60015b612e55573d8060008114612e01576040519150601f19603f3d011682016040523d82523d6000602084013e612e06565b606091505b506000815103612e4d57836040517f64a0ae92000000000000000000000000000000000000000000000000000000008152600401612e4491906139ec565b60405180910390fd5b805160208201fd5b63150b7a0260e01b7bffffffffffffffffffffffffffffffffffffffffffffffffffffffff1916817bffffffffffffffffffffffffffffffffffffffffffffffffffffffff191614612ede57836040517f64a0ae92000000000000000000000000000000000000000000000000000000008152600401612ed591906139ec565b60405180910390fd5b505b5050505050565b606060405180602001604052806000815250905090565b6060612f0982612307565b506000612f14612ee7565b90506000815111612f345760405180602001604052806000815250612f5f565b80612f3e84613338565b604051602001612f4f929190614b0c565b6040516020818303038152906040525b915050919050565b60007f7965db0b000000000000000000000000000000000000000000000000000000007bffffffffffffffffffffffffffffffffffffffffffffffffffffffff1916827bffffffffffffffffffffffffffffffffffffffffffffffffffffffff19161480612fda5750612fd982613406565b5b9050919050565b612feb8282611de2565b61302e5780826040517fe2517d3f000000000000000000000000000000000000000000000000000000008152600401613025929190614e91565b60405180910390fd5b5050565b60006002600083815260200190815260200160002060009054906101000a900473ffffffffffffffffffffffffffffffffffffffff169050919050565b80806130a85750600073ffffffffffffffffffffffffffffffffffffffff168273ffffffffffffffffffffffffffffffffffffffff1614155b156131dc5760006130b884612307565b9050600073ffffffffffffffffffffffffffffffffffffffff168373ffffffffffffffffffffffffffffffffffffffff161415801561312357508273ffffffffffffffffffffffffffffffffffffffff168173ffffffffffffffffffffffffffffffffffffffff1614155b8015613136575061313481846120d8565b155b1561317857826040517fa9fbf51f00000000000000000000000000000000000000000000000000000000815260040161316f91906139ec565b60405180910390fd5b81156131da57838573ffffffffffffffffffffffffffffffffffffffff168273ffffffffffffffffffffffffffffffffffffffff167f8c5be1e5ebec7d5bd14f71427d1e84f3dd0314c0f7b2291e5b200ac8c7c3b92560405160405180910390a45b505b836004600085815260200190815260200160002060006101000a81548173ffffffffffffffffffffffffffffffffffffffff021916908373ffffffffffffffffffffffffffffffffffffffff16021790555050505050565b61323f838383613467565b6132f357600073ffffffffffffffffffffffffffffffffffffffff168373ffffffffffffffffffffffffffffffffffffffff16036132b457806040517f7e2732890000000000000000000000000000000000000000000000000000000081526004016132ab9190613b62565b60405180910390fd5b81816040517f177e802f0000000000000000000000000000000000000000000000000000000081526004016132ea929190613bbd565b60405180910390fd5b505050565b61330061138d565b613336576040517f8dfc202b00000000000000000000000000000000000000000000000000000000815260040160405180910390fd5b565b60606000600161334784613528565b01905060008167ffffffffffffffff81111561336657613365613cbe565b5b6040519080825280601f01601f1916602001820160405280156133985781602001600182028036833780820191505090505b509050600082602083010190505b6001156133fb578080600190039150507f3031323334353637383961626364656600000000000000000000000000000000600a86061a8153600a85816133ef576133ee614283565b5b049450600085036133a6575b819350505050919050565b6000634906490660e01b7bffffffffffffffffffffffffffffffffffffffffffffffffffffffff1916827bffffffffffffffffffffffffffffffffffffffffffffffffffffffff19161480613460575061345f8261367b565b5b9050919050565b60008073ffffffffffffffffffffffffffffffffffffffff168373ffffffffffffffffffffffffffffffffffffffff161415801561351f57508273ffffffffffffffffffffffffffffffffffffffff168473ffffffffffffffffffffffffffffffffffffffff1614806134e057506134df84846120d8565b5b8061351e57508273ffffffffffffffffffffffffffffffffffffffff166135068361238f565b73ffffffffffffffffffffffffffffffffffffffff16145b5b90509392505050565b600080600090507a184f03e93ff9f4daa797ed6e38ed64bf6a1f0100000000000000008310613586577a184f03e93ff9f4daa797ed6e38ed64bf6a1f010000000000000000838161357c5761357b614283565b5b0492506040810190505b6d04ee2d6d415b85acef810000000083106135c3576d04ee2d6d415b85acef810000000083816135b9576135b8614283565b5b0492506020810190505b662386f26fc1000083106135f257662386f26fc1000083816135e8576135e7614283565b5b0492506010810190505b6305f5e100831061361b576305f5e100838161361157613610614283565b5b0492506008810190505b612710831061364057612710838161363657613635614283565b5b0492506004810190505b60648310613663576064838161365957613658614283565b5b0492506002810190505b600a8310613672576001810190505b80915050919050565b60007f80ac58cd000000000000000000000000000000000000000000000000000000007bffffffffffffffffffffffffffffffffffffffffffffffffffffffff1916827bffffffffffffffffffffffffffffffffffffffffffffffffffffffff1916148061374657507f5b5e139f000000000000000000000000000000000000000000000000000000007bffffffffffffffffffffffffffffffffffffffffffffffffffffffff1916827bffffffffffffffffffffffffffffffffffffffffffffffffffffffff1916145b8061375657506137558261375d565b5b9050919050565b60007f01ffc9a7000000000000000000000000000000000000000000000000000000007bffffffffffffffffffffffffffffffffffffffffffffffffffffffff1916827bffffffffffffffffffffffffffffffffffffffffffffffffffffffff1916149050919050565b6000604051905090565b600080fd5b600080fd5b60007fffffffff0000000000000000000000000000000000000000000000000000000082169050919050565b613810816137db565b811461381b57600080fd5b50565b60008135905061382d81613807565b92915050565b600060208284031215613849576138486137d1565b5b60006138578482850161381e565b91505092915050565b60008115159050919050565b61387581613860565b82525050565b6000602082019050613890600083018461386c565b92915050565b6000819050919050565b6138a981613896565b81146138b457600080fd5b50565b6000813590506138c6816138a0565b92915050565b6000602082840312156138e2576138e16137d1565b5b60006138f0848285016138b7565b91505092915050565b600081519050919050565b600082825260208201905092915050565b60005b83811015613933578082015181840152602081019050613918565b60008484015250505050565b6000601f19601f8301169050919050565b600061395b826138f9565b6139658185613904565b9350613975818560208601613915565b61397e8161393f565b840191505092915050565b600060208201905081810360008301526139a38184613950565b905092915050565b600073ffffffffffffffffffffffffffffffffffffffff82169050919050565b60006139d6826139ab565b9050919050565b6139e6816139cb565b82525050565b6000602082019050613a0160008301846139dd565b92915050565b613a10816139cb565b8114613a1b57600080fd5b50565b600081359050613a2d81613a07565b92915050565b60008060408385031215613a4a57613a496137d1565b5b6000613a5885828601613a1e565b9250506020613a69858286016138b7565b9150509250929050565b600080600060608486031215613a8c57613a8b6137d1565b5b6000613a9a86828701613a1e565b9350506020613aab86828701613a1e565b9250506040613abc868287016138b7565b9150509250925092565b6000819050919050565b613ad981613ac6565b8114613ae457600080fd5b50565b600081359050613af681613ad0565b92915050565b600060208284031215613b1257613b116137d1565b5b6000613b2084828501613ae7565b91505092915050565b613b3281613ac6565b82525050565b6000602082019050613b4d6000830184613b29565b92915050565b613b5c81613896565b82525050565b6000602082019050613b776000830184613b53565b92915050565b60008060408385031215613b9457613b936137d1565b5b6000613ba2858286016138b7565b9250506020613bb3858286016138b7565b9150509250929050565b6000604082019050613bd260008301856139dd565b613bdf6020830184613b53565b9392505050565b60008060408385031215613bfd57613bfc6137d1565b5b6000613c0b85828601613ae7565b9250506020613c1c85828601613a1e565b9150509250929050565b600060c082019050613c3b6000830189613b53565b613c486020830188613b53565b613c55604083018761386c565b613c626060830186613b53565b613c6f6080830185613b53565b613c7c60a083018461386c565b979650505050505050565b600060208284031215613c9d57613c9c6137d1565b5b6000613cab84828501613a1e565b91505092915050565b600080fd5b600080fd5b7f4e487b7100000000000000000000000000000000000000000000000000000000600052604160045260246000fd5b613cf68261393f565b810181811067ffffffffffffffff82111715613d1557613d14613cbe565b5b80604052505050565b6000613d286137c7565b9050613d348282613ced565b919050565b600067ffffffffffffffff821115613d5457613d53613cbe565b5b613d5d8261393f565b9050602081019050919050565b82818337600083830152505050565b6000613d8c613d8784613d39565b613d1e565b905082815260208101848484011115613da857613da7613cb9565b5b613db3848285613d6a565b509392505050565b600082601f830112613dd057613dcf613cb4565b5b8135613de0848260208601613d79565b91505092915050565b600080600080600060a08688031215613e0557613e046137d1565b5b6000613e1388828901613a1e565b955050602086013567ffffffffffffffff811115613e3457613e336137d6565b5b613e4088828901613dbb565b9450506040613e51888289016138b7565b9350506060613e62888289016138b7565b9250506080613e73888289016138b7565b9150509295509295909350565b613e8981613860565b8114613e9457600080fd5b50565b600081359050613ea681613e80565b92915050565b60008060408385031215613ec357613ec26137d1565b5b6000613ed185828601613a1e565b9250506020613ee285828601613e97565b9150509250929050565b600067ffffffffffffffff821115613f0757613f06613cbe565b5b613f108261393f565b9050602081019050919050565b6000613f30613f2b84613eec565b613d1e565b905082815260208101848484011115613f4c57613f4b613cb9565b5b613f57848285613d6a565b509392505050565b600082601f830112613f7457613f73613cb4565b5b8135613f84848260208601613f1d565b91505092915050565b60008060008060808587031215613fa757613fa66137d1565b5b6000613fb587828801613a1e565b9450506020613fc687828801613a1e565b9350506040613fd7878288016138b7565b925050606085013567ffffffffffffffff811115613ff857613ff76137d6565b5b61400487828801613f5f565b91505092959194509250565b60008060408385031215614027576140266137d1565b5b600061403585828601613a1e565b925050602061404685828601613a1e565b9150509250929050565b600060a0820190506140656000830188613b53565b6140726020830187613b53565b61407f604083018661386c565b61408c6060830185613b53565b614099608083018461386c565b9695505050505050565b7f496e76616c696420746f6b656e00000000000000000000000000000000000000600082015250565b60006140d9600d83613904565b91506140e4826140a3565b602082019050919050565b60006020820190508181036000830152614108816140cc565b9050919050565b7f5469636b657420616c7265616479207573656400000000000000000000000000600082015250565b6000614145601383613904565b91506141508261410f565b602082019050919050565b6000602082019050818103600083015261417481614138565b9050919050565b7f4e487b7100000000000000000000000000000000000000000000000000000000600052602260045260246000fd5b600060028204905060018216806141c257607f821691505b6020821081036141d5576141d461417b565b5b50919050565b60006060820190506141f060008301866139dd565b6141fd6020830185613b53565b61420a60408301846139dd565b949350505050565b7f4e487b7100000000000000000000000000000000000000000000000000000000600052601160045260246000fd5b600061424c82613896565b915061425783613896565b925082820261426581613896565b9150828204841483151761427c5761427b614212565b5b5092915050565b7f4e487b7100000000000000000000000000000000000000000000000000000000600052601260045260246000fd5b60006142bd82613896565b91506142c883613896565b9250826142d8576142d7614283565b5b828204905092915050565b7f4e6f74206f776e65720000000000000000000000000000000000000000000000600082015250565b6000614319600983613904565b9150614324826142e3565b602082019050919050565b600060208201905081810360008301526143488161430c565b9050919050565b7f50726963652062656c6f77206d696e696d756d00000000000000000000000000600082015250565b6000614385601383613904565b91506143908261434f565b602082019050919050565b600060208201905081810360008301526143b481614378565b9050919050565b7f4576656e742068617320616c7265616479206f63637572726564000000000000600082015250565b60006143f1601a83613904565b91506143fc826143bb565b602082019050919050565b60006020820190508181036000830152614420816143e4565b9050919050565b7f5469636b657420686173206265656e2075736564000000000000000000000000600082015250565b600061445d601483613904565b915061446882614427565b602082019050919050565b6000602082019050818103600083015261448c81614450565b9050919050565b600061449e82613896565b91506144a983613896565b92508282019050808211156144c1576144c0614212565b5b92915050565b7f526573616c6520636f6f6c646f776e2061637469766500000000000000000000600082015250565b60006144fd601683613904565b9150614508826144c7565b602082019050919050565b6000602082019050818103600083015261452c816144f0565b9050919050565b7f50726963652065786365656473206d6178206d756c7469706c69657200000000600082015250565b6000614569601c83613904565b915061457482614533565b602082019050919050565b600060208201905081810360008301526145988161455c565b9050919050565b600081905092915050565b50565b60006145ba60008361459f565b91506145c5826145aa565b600082019050919050565b60006145db826145ad565b9150819050919050565b7f4661696c656420746f2077697468647261770000000000000000000000000000600082015250565b600061461b601283613904565b9150614626826145e5565b602082019050919050565b6000602082019050818103600083015261464a8161460e565b9050919050565b7f4e6f7420666f722073616c650000000000000000000000000000000000000000600082015250565b6000614687600c83613904565b915061469282614651565b602082019050919050565b600060208201905081810360008301526146b68161467a565b9050919050565b7f496e73756666696369656e742066756e64730000000000000000000000000000600082015250565b60006146f3601283613904565b91506146fe826146bd565b602082019050919050565b60006020820190508181036000830152614722816146e6565b9050919050565b7f52617465206c696d697420657863656564656400000000000000000000000000600082015250565b600061475f601383613904565b915061476a82614729565b602082019050919050565b6000602082019050818103600083015261478e81614752565b9050919050565b60006147a082613896565b91507fffffffffffffffffffffffffffffffffffffffffffffffffffffffffffffffff82036147d2576147d1614212565b5b600182019050919050565b7f43616e6e6f742062757920796f7572206f776e207469636b6574000000000000600082015250565b6000614813601a83613904565b915061481e826147dd565b602082019050919050565b6000602082019050818103600083015261484281614806565b9050919050565b600061485482613896565b915061485f83613896565b925082820390508181111561487757614876614212565b5b92915050565b7f4661696c656420746f2073656e6420457468657220746f2073656c6c65720000600082015250565b60006148b3601e83613904565b91506148be8261487d565b602082019050919050565b600060208201905081810360008301526148e2816148a6565b9050919050565b7f4661696c656420746f20726566756e64206f7665727061796d656e7400000000600082015250565b600061491f601c83613904565b915061492a826148e9565b602082019050919050565b6000602082019050818103600083015261494e81614912565b9050919050565b7f43616e6e6f74206d696e7420746f207a65726f20616464726573730000000000600082015250565b600061498b601b83613904565b915061499682614955565b602082019050919050565b600060208201905081810360008301526149ba8161497e565b9050919050565b7f4576656e742064617465206d75737420626520696e2066757475726500000000600082015250565b60006149f7601c83613904565b9150614a02826149c1565b602082019050919050565b60006020820190508181036000830152614a26816149ea565b9050919050565b7f4d6178206d696e747320657863656564656420666f7220616464726573730000600082015250565b6000614a63601e83613904565b9150614a6e82614a2d565b602082019050919050565b60006020820190508181036000830152614a9281614a56565b9050919050565b6000606082019050614aae6000830186613b53565b614abb6020830185613b53565b614ac86040830184613b53565b949350505050565b600081905092915050565b6000614ae6826138f9565b614af08185614ad0565b9350614b00818560208601613915565b80840191505092915050565b6000614b188285614adb565b9150614b248284614adb565b91508190509392505050565b60008190508160005260206000209050919050565b60006020601f8301049050919050565b600082821b905092915050565b600060088302614b927fffffffffffffffffffffffffffffffffffffffffffffffffffffffffffffffff82614b55565b614b9c8683614b55565b95508019841693508086168417925050509392505050565b6000819050919050565b6000614bd9614bd4614bcf84613896565b614bb4565b613896565b9050919050565b6000819050919050565b614bf383614bbe565b614c07614bff82614be0565b848454614b62565b825550505050565b600090565b614c1c614c0f565b614c27818484614bea565b505050565b5b81811015614c4b57614c40600082614c14565b600181019050614c2d565b5050565b601f821115614c9057614c6181614b30565b614c6a84614b45565b81016020851015614c79578190505b614c8d614c8585614b45565b830182614c2c565b50505b505050565b600082821c905092915050565b6000614cb360001984600802614c95565b1980831691505092915050565b6000614ccc8383614ca2565b9150826002028217905092915050565b614ce5826138f9565b67ffffffffffffffff811115614cfe57614cfd613cbe565b5b614d0882546141aa565b614d13828285614c4f565b600060209050601f831160018114614d465760008415614d34578287015190505b614d3e8582614cc0565b865550614da6565b601f198416614d5486614b30565b60005b82811015614d7c57848901518255600182019150602085019450602081019050614d57565b86831015614d995784890151614d95601f891682614ca2565b8355505b6001600288020188555050505b505050505050565b600081519050919050565b600082825260208201905092915050565b6000614dd582614dae565b614ddf8185614db9565b9350614def818560208601613915565b614df88161393f565b840191505092915050565b6000608082019050614e1860008301876139dd565b614e2560208301866139dd565b614e326040830185613b53565b8181036060830152614e448184614dca565b905095945050505050565b600081519050614e5e81613807565b92915050565b600060208284031215614e7a57614e796137d1565b5b6000614e8884828501614e4f565b91505092915050565b6000604082019050614ea660008301856139dd565b614eb36020830184613b29565b939250505056fea264697066735822122036478a35c1b99bdfc07df441b2934842e7693dc8d89342d16e711f72153ff89264736f6c63430008140033",
  "linkReferences": {},
  "deployedLinkReferences": {}
}