{
  "_format": "hh-sol-artifact-1",
  "contractName": "NFTTicket",
  "sourceName": "contracts/NFTTicket.sol",
  "abi": [
    {
      "inputs": [],
      "stateMutability": "nonpayable",
      "type": "constructor"
    },
    {
      "inputs": [],
      "name": "AccessControlBadConfirmation",
      "type": "error"
    },
    {
      "inputs": [
        {
          "internalType": "address",
          "name": "account",
          "type": "address"
        },
        {
          "internalType": "bytes32",
          "name": "neededRole",
          "type": "bytes32"
        }
      ],
      "name": "AccessControlUnauthorizedAccount",
      "type": "error"
    },
    {
      "inputs": [
        {
          "internalType": "uint256",
          "name": "numerator",
          "type": "uint256"
        },
        {
          "internalType": "uint256",
          "name": "denominator",
          "type": "uint256"
        }
      ],
      "name": "ERC2981InvalidDefaultRoyalty",
      "type": "error"
    },
    {
      "inputs": [
        {
          "internalType": "address",
          "name": "receiver",
          "type": "address"
        }
      ],
      "name": "ERC2981InvalidDefaultRoyaltyReceiver",
      "type": "error"
    },
    {
      "inputs": [
        {
          "internalType": "uint256",
          "name": "tokenId",
          "type": "uint256"
        },
        {
          "internalType": "uint256",
          "name": "numerator",
          "type": "uint256"
        },
        {
          "internalType": "uint256",
          "name": "denominator",
          "type": "uint256"
        }
      ],
      "name": "ERC2981InvalidTokenRoyalty",
      "type": "error"
    },
    {
      "inputs": [
        {
          "internalType": "uint256",
          "name": "tokenId",
          "type": "uint256"
        },
        {
          "internalType": "address",
          "name": "receiver",
          "type": "address"
        }
      ],
      "name": "ERC2981InvalidTokenRoyaltyReceiver",
      "type": "error"
    },
    {
      "inputs": [
        {
          "internalType": "address",
          "name": "sender",
          "type": "address"
        },
        {
          "internalType": "uint256",
          "name": "tokenId",
          "type": "uint256"
        },
        {
          "internalType": "address",
          "name": "owner",
          "type": "address"
        }
      ],
      "name": "ERC721IncorrectOwner",
      "type": "error"
    },
    {
      "inputs": [
        {
          "internalType": "address",
          "name": "operator",
          "type": "address"
        },
        {
          "internalType": "uint256",
          "name": "tokenId",
          "type": "uint256"
        }
      ],
      "name": "ERC721InsufficientApproval",
      "type": "error"
    },
    {
      "inputs": [
        {
          "internalType": "address",
          "name": "approver",
          "type": "address"
        }
      ],
      "name": "ERC721InvalidApprover",
      "type": "error"
    },
    {
      "inputs": [
        {
          "internalType": "address",
          "name": "operator",
          "type": "address"
        }
      ],
      "name": "ERC721InvalidOperator",
      "type": "error"
    },
    {
      "inputs": [
        {
          "internalType": "address",
          "name": "owner",
          "type": "address"
        }
      ],
      "name": "ERC721InvalidOwner",
      "type": "error"
    },
    {
      "inputs": [
        {
          "internalType": "address",
          "name": "receiver",
          "type": "address"
        }
      ],
      "name": "ERC721InvalidReceiver",
      "type": "error"
    },
    {
      "inputs": [
        {
          "internalType": "address",
          "name": "sender",
          "type": "address"
        }
      ],
      "name": "ERC721InvalidSender",
      "type": "error"
    },
    {
      "inputs": [
        {
          "internalType": "uint256",
          "name": "tokenId",
          "type": "uint256"
        }
      ],
      "name": "ERC721NonexistentToken",
      "type": "error"
    },
    {
      "inputs": [],
      "name": "ReentrancyGuardReentrantCall",
      "type": "error"
    },
    {
      "anonymous": false,
      "inputs": [
        {
          "indexed": true,
          "internalType": "address",
          "name": "owner",
          "type": "address"
        },
        {
          "indexed": true,
          "internalType": "address",
          "name": "approved",
          "type": "address"
        },
        {
          "indexed": true,
          "internalType": "uint256",
          "name": "tokenId",
          "type": "uint256"
        }
      ],
      "name": "Approval",
      "type": "event"
    },
    {
      "anonymous": false,
      "inputs": [
        {
          "indexed": true,
          "internalType": "address",
          "name": "owner",
          "type": "address"
        },
        {
          "indexed": true,
          "internalType": "address",
          "name": "operator",
          "type": "address"
        },
        {
          "indexed": false,
          "internalType": "bool",
          "name": "approved",
          "type": "bool"
        }
      ],
      "name": "ApprovalForAll",
      "type": "event"
    },
    {
      "anonymous": false,
      "inputs": [
        {
          "indexed": false,
          "internalType": "uint256",
          "name": "_fromTokenId",
          "type": "uint256"
        },
        {
          "indexed": false,
          "internalType": "uint256",
          "name": "_toTokenId",
          "type": "uint256"
        }
      ],
      "name": "BatchMetadataUpdate",
      "type": "event"
    },
    {
      "anonymous": false,
      "inputs": [
        {
          "indexed": false,
          "internalType": "uint256",
          "name": "_tokenId",
          "type": "uint256"
        }
      ],
      "name": "MetadataUpdate",
      "type": "event"
    },
    {
      "anonymous": false,
      "inputs": [
        {
          "indexed": true,
          "internalType": "bytes32",
          "name": "role",
          "type": "bytes32"
        },
        {
          "indexed": true,
          "internalType": "bytes32",
          "name": "previousAdminRole",
          "type": "bytes32"
        },
        {
          "indexed": true,
          "internalType": "bytes32",
          "name": "newAdminRole",
          "type": "bytes32"
        }
      ],
      "name": "RoleAdminChanged",
      "type": "event"
    },
    {
      "anonymous": false,
      "inputs": [
        {
          "indexed": true,
          "internalType": "bytes32",
          "name": "role",
          "type": "bytes32"
        },
        {
          "indexed": true,
          "internalType": "address",
          "name": "account",
          "type": "address"
        },
        {
          "indexed": true,
          "internalType": "address",
          "name": "sender",
          "type": "address"
        }
      ],
      "name": "RoleGranted",
      "type": "event"
    },
    {
      "anonymous": false,
      "inputs": [
        {
          "indexed": true,
          "internalType": "bytes32",
          "name": "role",
          "type": "bytes32"
        },
        {
          "indexed": true,
          "internalType": "address",
          "name": "account",
          "type": "address"
        },
        {
          "indexed": true,
          "internalType": "address",
          "name": "sender",
          "type": "address"
        }
      ],
      "name": "RoleRevoked",
      "type": "event"
    },
    {
      "anonymous": false,
      "inputs": [
        {
          "indexed": true,
          "internalType": "uint256",
          "name": "tokenId",
          "type": "uint256"
        },
        {
          "indexed": false,
          "internalType": "uint256",
          "name": "price",
          "type": "uint256"
        }
      ],
      "name": "TicketListed",
      "type": "event"
    },
    {
      "anonymous": false,
      "inputs": [
        {
          "indexed": true,
          "internalType": "uint256",
          "name": "tokenId",
          "type": "uint256"
        },
        {
          "indexed": true,
          "internalType": "address",
          "name": "owner",
          "type": "address"
        },
        {
          "indexed": false,
          "internalType": "uint256",
          "name": "eventId",
          "type": "uint256"
        },
        {
          "indexed": false,
          "internalType": "uint256",
          "name": "price",
          "type": "uint256"
        }
      ],
      "name": "TicketMinted",
      "type": "event"
    },
    {
      "anonymous": false,
      "inputs": [
        {
          "indexed": true,
          "internalType": "uint256",
          "name": "tokenId",
          "type": "uint256"
        },
        {
          "indexed": true,
          "internalType": "address",
          "name": "from",
          "type": "address"
        },
        {
          "indexed": true,
          "internalType": "address",
          "name": "to",
          "type": "address"
        },
        {
          "indexed": false,
          "internalType": "uint256",
          "name": "price",
          "type": "uint256"
        }
      ],
      "name": "TicketSold",
      "type": "event"
    },
    {
      "anonymous": false,
      "inputs": [
        {
          "indexed": true,
          "internalType": "uint256",
          "name": "tokenId",
          "type": "uint256"
        },
        {
          "indexed": true,
          "internalType": "address",
          "name": "validator",
          "type": "address"
        }
      ],
      "name": "TicketValidated",
      "type": "event"
    },
    {
      "anonymous": false,
      "inputs": [
        {
          "indexed": true,
          "internalType": "address",
          "name": "from",
          "type": "address"
        },
        {
          "indexed": true,
          "internalType": "address",
          "name": "to",
          "type": "address"
        },
        {
          "indexed": true,
          "internalType": "uint256",
          "name": "tokenId",
          "type": "uint256"
        }
      ],
      "name": "Transfer",
      "type": "event"
    },
    {
      "inputs": [],
      "name": "DEFAULT_ADMIN_ROLE",
      "outputs": [
        {
          "internalType": "bytes32",
          "name": "",
          "type": "bytes32"
        }
      ],
      "stateMutability": "view",
      "type": "function"
    },
    {
      "inputs": [],
      "name": "MINTER_ROLE",
      "outputs": [
        {
          "internalType": "bytes32",
          "name": "",
          "type": "bytes32"
        }
      ],
      "stateMutability": "view",
      "type": "function"
    },
    {
      "inputs": [],
      "name": "VALIDATOR_ROLE",
      "outputs": [
        {
          "internalType": "bytes32",
          "name": "",
          "type": "bytes32"
        }
      ],
      "stateMutability": "view",
      "type": "function"
    },
    {
      "inputs": [
        {
          "internalType": "address",
          "name": "to",
          "type": "address"
        },
        {
          "internalType": "uint256",
          "name": "tokenId",
          "type": "uint256"
        }
      ],
      "name": "approve",
      "outputs": [],
      "stateMutability": "nonpayable",
      "type": "function"
    },
    {
      "inputs": [
        {
          "internalType": "address",
          "name": "owner",
          "type": "address"
        }
      ],
      "name": "balanceOf",
      "outputs": [
        {
          "internalType": "uint256",
          "name": "",
          "type": "uint256"
        }
      ],
      "stateMutability": "view",
      "type": "function"
    },
    {
      "inputs": [
        {
          "internalType": "uint256",
          "name": "tokenId",
          "type": "uint256"
        }
      ],
      "name": "buyTicket",
      "outputs": [],
      "stateMutability": "payable",
      "type": "function"
    },
    {
      "inputs": [
        {
          "internalType": "uint256",
          "name": "tokenId",
          "type": "uint256"
        }
      ],
      "name": "getApproved",
      "outputs": [
        {
          "internalType": "address",
          "name": "",
          "type": "address"
        }
      ],
      "stateMutability": "view",
      "type": "function"
    },
    {
      "inputs": [
        {
          "internalType": "bytes32",
          "name": "role",
          "type": "bytes32"
        }
      ],
      "name": "getRoleAdmin",
      "outputs": [
        {
          "internalType": "bytes32",
          "name": "",
          "type": "bytes32"
        }
      ],
      "stateMutability": "view",
      "type": "function"
    },
    {
      "inputs": [
        {
          "internalType": "bytes32",
          "name": "role",
          "type": "bytes32"
        },
        {
          "internalType": "address",
          "name": "account",
          "type": "address"
        }
      ],
      "name": "grantRole",
      "outputs": [],
      "stateMutability": "nonpayable",
      "type": "function"
    },
    {
      "inputs": [
        {
          "internalType": "bytes32",
          "name": "role",
          "type": "bytes32"
        },
        {
          "internalType": "address",
          "name": "account",
          "type": "address"
        }
      ],
      "name": "hasRole",
      "outputs": [
        {
          "internalType": "bool",
          "name": "",
          "type": "bool"
        }
      ],
      "stateMutability": "view",
      "type": "function"
    },
    {
      "inputs": [
        {
          "internalType": "address",
          "name": "owner",
          "type": "address"
        },
        {
          "internalType": "address",
          "name": "operator",
          "type": "address"
        }
      ],
      "name": "isApprovedForAll",
      "outputs": [
        {
          "internalType": "bool",
          "name": "",
          "type": "bool"
        }
      ],
      "stateMutability": "view",
      "type": "function"
    },
    {
      "inputs": [
        {
          "internalType": "address",
          "name": "to",
          "type": "address"
        },
        {
          "internalType": "string",
          "name": "uri",
          "type": "string"
        },
        {
          "internalType": "uint256",
          "name": "eventId",
          "type": "uint256"
        },
        {
          "internalType": "uint256",
          "name": "price",
          "type": "uint256"
        }
      ],
      "name": "mintTicket",
      "outputs": [],
      "stateMutability": "nonpayable",
      "type": "function"
    },
    {
      "inputs": [],
      "name": "name",
      "outputs": [
        {
          "internalType": "string",
          "name": "",
          "type": "string"
        }
      ],
      "stateMutability": "view",
      "type": "function"
    },
    {
      "inputs": [
        {
          "internalType": "uint256",
          "name": "tokenId",
          "type": "uint256"
        }
      ],
      "name": "ownerOf",
      "outputs": [
        {
          "internalType": "address",
          "name": "",
          "type": "address"
        }
      ],
      "stateMutability": "view",
      "type": "function"
    },
    {
      "inputs": [
        {
          "internalType": "bytes32",
          "name": "role",
          "type": "bytes32"
        },
        {
          "internalType": "address",
          "name": "callerConfirmation",
          "type": "address"
        }
      ],
      "name": "renounceRole",
      "outputs": [],
      "stateMutability": "nonpayable",
      "type": "function"
    },
    {
      "inputs": [
        {
          "internalType": "uint256",
          "name": "tokenId",
          "type": "uint256"
        },
        {
          "internalType": "uint256",
          "name": "price",
          "type": "uint256"
        }
      ],
      "name": "resellTicket",
      "outputs": [],
      "stateMutability": "nonpayable",
      "type": "function"
    },
    {
      "inputs": [
        {
          "internalType": "bytes32",
          "name": "role",
          "type": "bytes32"
        },
        {
          "internalType": "address",
          "name": "account",
          "type": "address"
        }
      ],
      "name": "revokeRole",
      "outputs": [],
      "stateMutability": "nonpayable",
      "type": "function"
    },
    {
      "inputs": [
        {
          "internalType": "uint256",
          "name": "tokenId",
          "type": "uint256"
        },
        {
          "internalType": "uint256",
          "name": "salePrice",
          "type": "uint256"
        }
      ],
      "name": "royaltyInfo",
      "outputs": [
        {
          "internalType": "address",
          "name": "receiver",
          "type": "address"
        },
        {
          "internalType": "uint256",
          "name": "amount",
          "type": "uint256"
        }
      ],
      "stateMutability": "view",
      "type": "function"
    },
    {
      "inputs": [
        {
          "internalType": "address",
          "name": "from",
          "type": "address"
        },
        {
          "internalType": "address",
          "name": "to",
          "type": "address"
        },
        {
          "internalType": "uint256",
          "name": "tokenId",
          "type": "uint256"
        }
      ],
      "name": "safeTransferFrom",
      "outputs": [],
      "stateMutability": "nonpayable",
      "type": "function"
    },
    {
      "inputs": [
        {
          "internalType": "address",
          "name": "from",
          "type": "address"
        },
        {
          "internalType": "address",
          "name": "to",
          "type": "address"
        },
        {
          "internalType": "uint256",
          "name": "tokenId",
          "type": "uint256"
        },
        {
          "internalType": "bytes",
          "name": "data",
          "type": "bytes"
        }
      ],
      "name": "safeTransferFrom",
      "outputs": [],
      "stateMutability": "nonpayable",
      "type": "function"
    },
    {
      "inputs": [
        {
          "internalType": "address",
          "name": "operator",
          "type": "address"
        },
        {
          "internalType": "bool",
          "name": "approved",
          "type": "bool"
        }
      ],
      "name": "setApprovalForAll",
      "outputs": [],
      "stateMutability": "nonpayable",
      "type": "function"
    },
    {
      "inputs": [
        {
          "internalType": "bytes4",
          "name": "interfaceId",
          "type": "bytes4"
        }
      ],
      "name": "supportsInterface",
      "outputs": [
        {
          "internalType": "bool",
          "name": "",
          "type": "bool"
        }
      ],
      "stateMutability": "view",
      "type": "function"
    },
    {
      "inputs": [],
      "name": "symbol",
      "outputs": [
        {
          "internalType": "string",
          "name": "",
          "type": "string"
        }
      ],
      "stateMutability": "view",
      "type": "function"
    },
    {
      "inputs": [
        {
          "internalType": "uint256",
          "name": "",
          "type": "uint256"
        }
      ],
      "name": "tickets",
      "outputs": [
        {
          "internalType": "uint256",
          "name": "eventId",
          "type": "uint256"
        },
        {
          "internalType": "uint256",
          "name": "price",
          "type": "uint256"
        },
        {
          "internalType": "bool",
          "name": "forSale",
          "type": "bool"
        }
      ],
      "stateMutability": "view",
      "type": "function"
    },
    {
      "inputs": [
        {
          "internalType": "uint256",
          "name": "tokenId",
          "type": "uint256"
        }
      ],
      "name": "tokenURI",
      "outputs": [
        {
          "internalType": "string",
          "name": "",
          "type": "string"
        }
      ],
      "stateMutability": "view",
      "type": "function"
    },
    {
      "inputs": [
        {
          "internalType": "address",
          "name": "from",
          "type": "address"
        },
        {
          "internalType": "address",
          "name": "to",
          "type": "address"
        },
        {
          "internalType": "uint256",
          "name": "tokenId",
          "type": "uint256"
        }
      ],
      "name": "transferFrom",
      "outputs": [],
      "stateMutability": "nonpayable",
      "type": "function"
    },
    {
      "inputs": [
        {
          "internalType": "uint256",
          "name": "tokenId",
          "type": "uint256"
        }
      ],
      "name": "validateTicket",
      "outputs": [],
      "stateMutability": "nonpayable",
      "type": "function"
    },
    {
      "inputs": [],
      "name": "withdraw",
      "outputs": [],
      "stateMutability": "nonpayable",
      "type": "function"
    }
  ],
  "bytecode": "0x60806040523480156200001157600080fd5b506040518060400160405280600981526020017f4e46545469636b657400000000000000000000000000000000000000000000008152506040518060400160405280600581526020017f4e4654495800000000000000000000000000000000000000000000000000000081525081600090816200008f9190620006ba565b508060019081620000a19190620006ba565b5050506001600881905550620000c16000801b336200010f60201b60201c565b50620000f47f9f2df0fed2c77648de5860a4cc508cd0818c85b8b8a1ab4ceeef8d981c8956a6336200010f60201b60201c565b5062000109336101f46200021360201b60201c565b62000892565b6000620001238383620003c360201b60201c565b620002085760016007600085815260200190815260200160002060000160008473ffffffffffffffffffffffffffffffffffffffff1673ffffffffffffffffffffffffffffffffffffffff16815260200190815260200160002060006101000a81548160ff021916908315150217905550620001a46200042e60201b60201c565b73ffffffffffffffffffffffffffffffffffffffff168273ffffffffffffffffffffffffffffffffffffffff16847f2f8788117e7eff1d82e926ec794901d17c78024a50270940304540a733656f0d60405160405180910390a4600190506200020d565b600090505b92915050565b6000620002256200043660201b60201c565b6bffffffffffffffffffffffff16905080826bffffffffffffffffffffffff1611156200028d5781816040517f6f483d090000000000000000000000000000000000000000000000000000000081526004016200028492919062000803565b60405180910390fd5b600073ffffffffffffffffffffffffffffffffffffffff168373ffffffffffffffffffffffffffffffffffffffff1603620003025760006040517fb6d9900a000000000000000000000000000000000000000000000000000000008152600401620002f9919062000875565b60405180910390fd5b60405180604001604052808473ffffffffffffffffffffffffffffffffffffffff168152602001836bffffffffffffffffffffffff16815250600960008201518160000160006101000a81548173ffffffffffffffffffffffffffffffffffffffff021916908373ffffffffffffffffffffffffffffffffffffffff16021790555060208201518160000160146101000a8154816bffffffffffffffffffffffff02191690836bffffffffffffffffffffffff160217905550905050505050565b60006007600084815260200190815260200160002060000160008373ffffffffffffffffffffffffffffffffffffffff1673ffffffffffffffffffffffffffffffffffffffff16815260200190815260200160002060009054906101000a900460ff16905092915050565b600033905090565b6000612710905090565b600081519050919050565b7f4e487b7100000000000000000000000000000000000000000000000000000000600052604160045260246000fd5b7f4e487b7100000000000000000000000000000000000000000000000000000000600052602260045260246000fd5b60006002820490506001821680620004c257607f821691505b602082108103620004d857620004d76200047a565b5b50919050565b60008190508160005260206000209050919050565b60006020601f8301049050919050565b600082821b905092915050565b600060088302620005427fffffffffffffffffffffffffffffffffffffffffffffffffffffffffffffffff8262000503565b6200054e868362000503565b95508019841693508086168417925050509392505050565b6000819050919050565b6000819050919050565b60006200059b620005956200058f8462000566565b62000570565b62000566565b9050919050565b6000819050919050565b620005b7836200057a565b620005cf620005c682620005a2565b84845462000510565b825550505050565b600090565b620005e6620005d7565b620005f3818484620005ac565b505050565b5b818110156200061b576200060f600082620005dc565b600181019050620005f9565b5050565b601f8211156200066a576200063481620004de565b6200063f84620004f3565b810160208510156200064f578190505b620006676200065e85620004f3565b830182620005f8565b50505b505050565b600082821c905092915050565b60006200068f600019846008026200066f565b1980831691505092915050565b6000620006aa83836200067c565b9150826002028217905092915050565b620006c58262000440565b67ffffffffffffffff811115620006e157620006e06200044b565b5b620006ed8254620004a9565b620006fa8282856200061f565b600060209050601f8311600181146200073257600084156200071d578287015190505b6200072985826200069c565b86555062000799565b601f1984166200074286620004de565b60005b828110156200076c5784890151825560018201915060208501945060208101905062000745565b868310156200078c578489015162000788601f8916826200067c565b8355505b6001600288020188555050505b505050505050565b60006bffffffffffffffffffffffff82169050919050565b6000620007da620007d4620007ce84620007a1565b62000570565b62000566565b9050919050565b620007ec81620007b9565b82525050565b620007fd8162000566565b82525050565b60006040820190506200081a6000830185620007e1565b620008296020830184620007f2565b9392505050565b600073ffffffffffffffffffffffffffffffffffffffff82169050919050565b60006200085d8262000830565b9050919050565b6200086f8162000850565b82525050565b60006020820190506200088c600083018462000864565b92915050565b613b0b80620008a26000396000f3fe6080604052600436106101b75760003560e01c806350b44712116100ec578063a22cb4651161008a578063c87b56dd11610064578063c87b56dd14610620578063d53913931461065d578063d547741f14610688578063e985e9c5146106b1576101b7565b8063a22cb465146105a3578063b88d4fde146105cc578063c49baebe146105f5576101b7565b806370a08231116100c657806370a08231146104d357806391d148541461051057806395d89b411461054d578063a217fddf14610578576101b7565b806350b447121461043b5780636352211e1461047a57806367dd74ca146104b7576101b7565b8063248a9ca311610159578063348e991311610133578063348e9913146103a957806336568abe146103d25780633ccfd60b146103fb57806342842e0e14610412576101b7565b8063248a9ca3146103055780632a55205a146103425780632f2ff15d14610380576101b7565b806306fdde031161019557806306fdde031461024b578063081812fc14610276578063095ea7b3146102b357806323b872dd146102dc576101b7565b806301ffc9a7146101bc57806303f090ed146101f9578063054ae7df14610222575b600080fd5b3480156101c857600080fd5b506101e360048036038101906101de91906129f9565b6106ee565b6040516101f09190612a41565b60405180910390f35b34801561020557600080fd5b50610220600480360381019061021b9190612c36565b610700565b005b34801561022e57600080fd5b5061024960048036038101906102449190612cb9565b61081a565b005b34801561025757600080fd5b50610260610903565b60405161026d9190612d65565b60405180910390f35b34801561028257600080fd5b5061029d60048036038101906102989190612cb9565b610995565b6040516102aa9190612d96565b60405180910390f35b3480156102bf57600080fd5b506102da60048036038101906102d59190612db1565b6109b1565b005b3480156102e857600080fd5b5061030360048036038101906102fe9190612df1565b6109c7565b005b34801561031157600080fd5b5061032c60048036038101906103279190612e7a565b610ac9565b6040516103399190612eb6565b60405180910390f35b34801561034e57600080fd5b5061036960048036038101906103649190612ed1565b610ae9565b604051610377929190612f20565b60405180910390f35b34801561038c57600080fd5b506103a760048036038101906103a29190612f49565b610c19565b005b3480156103b557600080fd5b506103d060048036038101906103cb9190612ed1565b610c3b565b005b3480156103de57600080fd5b506103f960048036038101906103f49190612f49565b610d7a565b005b34801561040757600080fd5b50610410610df5565b005b34801561041e57600080fd5b5061043960048036038101906104349190612df1565b610ec2565b005b34801561044757600080fd5b50610462600480360381019061045d9190612cb9565b610ee2565b60405161047193929190612f89565b60405180910390f35b34801561048657600080fd5b506104a1600480360381019061049c9190612cb9565b610f19565b6040516104ae9190612d96565b60405180910390f35b6104d160048036038101906104cc9190612cb9565b610f2b565b005b3480156104df57600080fd5b506104fa60048036038101906104f59190612fc0565b61113b565b6040516105079190612fed565b60405180910390f35b34801561051c57600080fd5b5061053760048036038101906105329190612f49565b6111f5565b6040516105449190612a41565b60405180910390f35b34801561055957600080fd5b50610562611260565b60405161056f9190612d65565b60405180910390f35b34801561058457600080fd5b5061058d6112f2565b60405161059a9190612eb6565b60405180910390f35b3480156105af57600080fd5b506105ca60048036038101906105c59190613034565b6112f9565b005b3480156105d857600080fd5b506105f360048036038101906105ee9190613115565b61130f565b005b34801561060157600080fd5b5061060a611334565b6040516106179190612eb6565b60405180910390f35b34801561062c57600080fd5b5061064760048036038101906106429190612cb9565b611358565b6040516106549190612d65565b60405180910390f35b34801561066957600080fd5b5061067261146b565b60405161067f9190612eb6565b60405180910390f35b34801561069457600080fd5b506106af60048036038101906106aa9190612f49565b61148f565b005b3480156106bd57600080fd5b506106d860048036038101906106d39190613198565b6114b1565b6040516106e59190612a41565b60405180910390f35b60006106f982611545565b9050919050565b7f9f2df0fed2c77648de5860a4cc508cd0818c85b8b8a1ab4ceeef8d981c8956a661072a816115bf565b6000600b600081548092919061073f90613207565b91905055905061074f86826115d3565b61075981866116cc565b604051806060016040528085815260200184815260200160001515815250600c6000838152602001908152602001600020600082015181600001556020820151816001015560408201518160020160006101000a81548160ff0219169083151502179055509050508573ffffffffffffffffffffffffffffffffffffffff16817fc37a1385743f2c8fd48bc6522d6e5d7c954ff19299e19f502e7fad8a1568792b868660405161080a92919061324f565b60405180910390a3505050505050565b7f21702c8af46127c7fa207f89d0b0a8441bb32959a0ac7df790e9ab1a25c98926610844816115bf565b600073ffffffffffffffffffffffffffffffffffffffff1661086583610f19565b73ffffffffffffffffffffffffffffffffffffffff16036108bb576040517f08c379a00000000000000000000000000000000000000000000000000000000081526004016108b2906132c4565b60405180910390fd5b3373ffffffffffffffffffffffffffffffffffffffff16827f7523a5038b0221808d5987c7a4c3a6d9074ed76bf247f76665b2ed493e8fd1fb60405160405180910390a35050565b60606000805461091290613313565b80601f016020809104026020016040519081016040528092919081815260200182805461093e90613313565b801561098b5780601f106109605761010080835404028352916020019161098b565b820191906000526020600020905b81548152906001019060200180831161096e57829003601f168201915b5050505050905090565b60006109a082611728565b506109aa826117b0565b9050919050565b6109c382826109be6117ed565b6117f5565b5050565b600073ffffffffffffffffffffffffffffffffffffffff168273ffffffffffffffffffffffffffffffffffffffff1603610a395760006040517f64a0ae92000000000000000000000000000000000000000000000000000000008152600401610a309190612d96565b60405180910390fd5b6000610a4d8383610a486117ed565b611807565b90508373ffffffffffffffffffffffffffffffffffffffff168173ffffffffffffffffffffffffffffffffffffffff1614610ac3578382826040517f64283d7b000000000000000000000000000000000000000000000000000000008152600401610aba93929190613344565b60405180910390fd5b50505050565b600060076000838152602001908152602001600020600101549050919050565b6000806000600a6000868152602001908152602001600020905060008160000160009054906101000a900473ffffffffffffffffffffffffffffffffffffffff16905060008260000160149054906101000a90046bffffffffffffffffffffffff169050600073ffffffffffffffffffffffffffffffffffffffff168273ffffffffffffffffffffffffffffffffffffffff1603610bca57600960000160009054906101000a900473ffffffffffffffffffffffffffffffffffffffff169150600960000160149054906101000a90046bffffffffffffffffffffffff1690505b6000610bd4611a21565b6bffffffffffffffffffffffff16826bffffffffffffffffffffffff1688610bfc919061337b565b610c0691906133ec565b9050828195509550505050509250929050565b610c2282610ac9565b610c2b816115bf565b610c358383611a2b565b50505050565b3373ffffffffffffffffffffffffffffffffffffffff16610c5b83610f19565b73ffffffffffffffffffffffffffffffffffffffff1614610cb1576040517f08c379a0000000000000000000000000000000000000000000000000000000008152600401610ca890613469565b60405180910390fd5b60008111610cf4576040517f08c379a0000000000000000000000000000000000000000000000000000000008152600401610ceb906134d5565b60405180910390fd5b80600c6000848152602001908152602001600020600101819055506001600c600084815260200190815260200160002060020160006101000a81548160ff021916908315150217905550817fbca2f6391cafd6d28d39261ba883dd74090c618befb806e74ef434778bb2f7ed82604051610d6e9190612fed565b60405180910390a25050565b610d826117ed565b73ffffffffffffffffffffffffffffffffffffffff168173ffffffffffffffffffffffffffffffffffffffff1614610de6576040517f6697b23200000000000000000000000000000000000000000000000000000000815260040160405180910390fd5b610df08282611b1d565b505050565b6000801b610e02816115bf565b610e0a611c10565b60003373ffffffffffffffffffffffffffffffffffffffff1647604051610e3090613526565b60006040518083038185875af1925050503d8060008114610e6d576040519150601f19603f3d011682016040523d82523d6000602084013e610e72565b606091505b5050905080610eb6576040517f08c379a0000000000000000000000000000000000000000000000000000000008152600401610ead90613587565b60405180910390fd5b50610ebf611c56565b50565b610edd8383836040518060200160405280600081525061130f565b505050565b600c6020528060005260406000206000915090508060000154908060010154908060020160009054906101000a900460ff16905083565b6000610f2482611728565b9050919050565b610f33611c10565b6000600c600083815260200190815260200160002090508060020160009054906101000a900460ff16610f9b576040517f08c379a0000000000000000000000000000000000000000000000000000000008152600401610f92906135f3565b60405180910390fd5b8060010154341015610fe2576040517f08c379a0000000000000000000000000000000000000000000000000000000008152600401610fd99061365f565b60405180910390fd5b6000610fed83610f19565b905060008173ffffffffffffffffffffffffffffffffffffffff163460405161101590613526565b60006040518083038185875af1925050503d8060008114611052576040519150601f19603f3d011682016040523d82523d6000602084013e611057565b606091505b505090508061109b576040517f08c379a0000000000000000000000000000000000000000000000000000000008152600401611092906136cb565b60405180910390fd5b6110a6823386611c60565b60008360020160006101000a81548160ff0219169083151502179055503373ffffffffffffffffffffffffffffffffffffffff168273ffffffffffffffffffffffffffffffffffffffff16857f2bbc64d6afd28a753f6c5e4aaa894f1d684c44a0e080167eae104ac8505cfebd86600101546040516111259190612fed565b60405180910390a4505050611138611c56565b50565b60008073ffffffffffffffffffffffffffffffffffffffff168273ffffffffffffffffffffffffffffffffffffffff16036111ae5760006040517f89c62b640000000000000000000000000000000000000000000000000000000081526004016111a59190612d96565b60405180910390fd5b600360008373ffffffffffffffffffffffffffffffffffffffff1673ffffffffffffffffffffffffffffffffffffffff168152602001908152602001600020549050919050565b60006007600084815260200190815260200160002060000160008373ffffffffffffffffffffffffffffffffffffffff1673ffffffffffffffffffffffffffffffffffffffff16815260200190815260200160002060009054906101000a900460ff16905092915050565b60606001805461126f90613313565b80601f016020809104026020016040519081016040528092919081815260200182805461129b90613313565b80156112e85780601f106112bd576101008083540402835291602001916112e8565b820191906000526020600020905b8154815290600101906020018083116112cb57829003601f168201915b5050505050905090565b6000801b81565b61130b6113046117ed565b8383611dcd565b5050565b61131a8484846109c7565b61132e6113256117ed565b85858585611f3c565b50505050565b7f21702c8af46127c7fa207f89d0b0a8441bb32959a0ac7df790e9ab1a25c9892681565b606061136382611728565b50600060066000848152602001908152602001600020805461138490613313565b80601f01602080910402602001604051908101604052809291908181526020018280546113b090613313565b80156113fd5780601f106113d2576101008083540402835291602001916113fd565b820191906000526020600020905b8154815290600101906020018083116113e057829003601f168201915b50505050509050600061140e6120ed565b90506000815103611423578192505050611466565b600082511115611458578082604051602001611440929190613727565b60405160208183030381529060405292505050611466565b61146184612104565b925050505b919050565b7f9f2df0fed2c77648de5860a4cc508cd0818c85b8b8a1ab4ceeef8d981c8956a681565b61149882610ac9565b6114a1816115bf565b6114ab8383611b1d565b50505050565b6000600560008473ffffffffffffffffffffffffffffffffffffffff1673ffffffffffffffffffffffffffffffffffffffff16815260200190815260200160002060008373ffffffffffffffffffffffffffffffffffffffff1673ffffffffffffffffffffffffffffffffffffffff16815260200190815260200160002060009054906101000a900460ff16905092915050565b60007f2a55205a000000000000000000000000000000000000000000000000000000007bffffffffffffffffffffffffffffffffffffffffffffffffffffffff1916827bffffffffffffffffffffffffffffffffffffffffffffffffffffffff191614806115b857506115b78261216d565b5b9050919050565b6115d0816115cb6117ed565b6121e7565b50565b600073ffffffffffffffffffffffffffffffffffffffff168273ffffffffffffffffffffffffffffffffffffffff16036116455760006040517f64a0ae9200000000000000000000000000000000000000000000000000000000815260040161163c9190612d96565b60405180910390fd5b600061165383836000611807565b9050600073ffffffffffffffffffffffffffffffffffffffff168173ffffffffffffffffffffffffffffffffffffffff16146116c75760006040517f73c6ac6e0000000000000000000000000000000000000000000000000000000081526004016116be9190612d96565b60405180910390fd5b505050565b806006600084815260200190815260200160002090816116ec91906138f7565b507ff8e1a15aba9398e019f0b49df1a4fde98ee17ae345cb5f6b5e2c27f5033e8ce78260405161171c9190612fed565b60405180910390a15050565b60008061173483612238565b9050600073ffffffffffffffffffffffffffffffffffffffff168173ffffffffffffffffffffffffffffffffffffffff16036117a757826040517f7e27328900000000000000000000000000000000000000000000000000000000815260040161179e9190612fed565b60405180910390fd5b80915050919050565b60006004600083815260200190815260200160002060009054906101000a900473ffffffffffffffffffffffffffffffffffffffff169050919050565b600033905090565b6118028383836001612275565b505050565b60008061181384612238565b9050600073ffffffffffffffffffffffffffffffffffffffff168373ffffffffffffffffffffffffffffffffffffffff16146118555761185481848661243a565b5b600073ffffffffffffffffffffffffffffffffffffffff168173ffffffffffffffffffffffffffffffffffffffff16146118e657611897600085600080612275565b6001600360008373ffffffffffffffffffffffffffffffffffffffff1673ffffffffffffffffffffffffffffffffffffffff168152602001908152602001600020600082825403925050819055505b600073ffffffffffffffffffffffffffffffffffffffff168573ffffffffffffffffffffffffffffffffffffffff1614611969576001600360008773ffffffffffffffffffffffffffffffffffffffff1673ffffffffffffffffffffffffffffffffffffffff168152602001908152602001600020600082825401925050819055505b846002600086815260200190815260200160002060006101000a81548173ffffffffffffffffffffffffffffffffffffffff021916908373ffffffffffffffffffffffffffffffffffffffff160217905550838573ffffffffffffffffffffffffffffffffffffffff168273ffffffffffffffffffffffffffffffffffffffff167fddf252ad1be2c89b69c2b068fc378daa952ba7f163c4a11628f55a4df523b3ef60405160405180910390a4809150509392505050565b6000612710905090565b6000611a3783836111f5565b611b125760016007600085815260200190815260200160002060000160008473ffffffffffffffffffffffffffffffffffffffff1673ffffffffffffffffffffffffffffffffffffffff16815260200190815260200160002060006101000a81548160ff021916908315150217905550611aaf6117ed565b73ffffffffffffffffffffffffffffffffffffffff168273ffffffffffffffffffffffffffffffffffffffff16847f2f8788117e7eff1d82e926ec794901d17c78024a50270940304540a733656f0d60405160405180910390a460019050611b17565b600090505b92915050565b6000611b2983836111f5565b15611c055760006007600085815260200190815260200160002060000160008473ffffffffffffffffffffffffffffffffffffffff1673ffffffffffffffffffffffffffffffffffffffff16815260200190815260200160002060006101000a81548160ff021916908315150217905550611ba26117ed565b73ffffffffffffffffffffffffffffffffffffffff168273ffffffffffffffffffffffffffffffffffffffff16847ff6391f5c32d9c69d2a47ea670b442974b53935d1edc7fd64eb21e047a839171b60405160405180910390a460019050611c0a565b600090505b92915050565b600260085403611c4c576040517f3ee5aeb500000000000000000000000000000000000000000000000000000000815260040160405180910390fd5b6002600881905550565b6001600881905550565b600073ffffffffffffffffffffffffffffffffffffffff168273ffffffffffffffffffffffffffffffffffffffff1603611cd25760006040517f64a0ae92000000000000000000000000000000000000000000000000000000008152600401611cc99190612d96565b60405180910390fd5b6000611ce083836000611807565b9050600073ffffffffffffffffffffffffffffffffffffffff168173ffffffffffffffffffffffffffffffffffffffff1603611d5357816040517f7e273289000000000000000000000000000000000000000000000000000000008152600401611d4a9190612fed565b60405180910390fd5b8373ffffffffffffffffffffffffffffffffffffffff168173ffffffffffffffffffffffffffffffffffffffff1614611dc7578382826040517f64283d7b000000000000000000000000000000000000000000000000000000008152600401611dbe93929190613344565b60405180910390fd5b50505050565b600073ffffffffffffffffffffffffffffffffffffffff168273ffffffffffffffffffffffffffffffffffffffff1603611e3e57816040517f5b08ba18000000000000000000000000000000000000000000000000000000008152600401611e359190612d96565b60405180910390fd5b80600560008573ffffffffffffffffffffffffffffffffffffffff1673ffffffffffffffffffffffffffffffffffffffff16815260200190815260200160002060008473ffffffffffffffffffffffffffffffffffffffff1673ffffffffffffffffffffffffffffffffffffffff16815260200190815260200160002060006101000a81548160ff0219169083151502179055508173ffffffffffffffffffffffffffffffffffffffff168373ffffffffffffffffffffffffffffffffffffffff167f17307eab39ab6107e8899845ad3d59bd9653f200f220920489ca2b5937696c3183604051611f2f9190612a41565b60405180910390a3505050565b60008373ffffffffffffffffffffffffffffffffffffffff163b11156120e6578273ffffffffffffffffffffffffffffffffffffffff1663150b7a02868685856040518563ffffffff1660e01b8152600401611f9b9493929190613a1e565b6020604051808303816000875af1925050508015611fd757506040513d601f19601f82011682018060405250810190611fd49190613a7f565b60015b61205b573d8060008114612007576040519150601f19603f3d011682016040523d82523d6000602084013e61200c565b606091505b50600081510361205357836040517f64a0ae9200000000000000000000000000000000000000000000000000000000815260040161204a9190612d96565b60405180910390fd5b805160208201fd5b63150b7a0260e01b7bffffffffffffffffffffffffffffffffffffffffffffffffffffffff1916817bffffffffffffffffffffffffffffffffffffffffffffffffffffffff1916146120e457836040517f64a0ae920000000000000000000000000000000000000000000000000000000081526004016120db9190612d96565b60405180910390fd5b505b5050505050565b606060405180602001604052806000815250905090565b606061210f82611728565b50600061211a6120ed565b9050600081511161213a5760405180602001604052806000815250612165565b80612144846124fe565b604051602001612155929190613727565b6040516020818303038152906040525b915050919050565b60007f7965db0b000000000000000000000000000000000000000000000000000000007bffffffffffffffffffffffffffffffffffffffffffffffffffffffff1916827bffffffffffffffffffffffffffffffffffffffffffffffffffffffff191614806121e057506121df826125cc565b5b9050919050565b6121f182826111f5565b6122345780826040517fe2517d3f00000000000000000000000000000000000000000000000000000000815260040161222b929190613aac565b60405180910390fd5b5050565b60006002600083815260200190815260200160002060009054906101000a900473ffffffffffffffffffffffffffffffffffffffff169050919050565b80806122ae5750600073ffffffffffffffffffffffffffffffffffffffff168273ffffffffffffffffffffffffffffffffffffffff1614155b156123e25760006122be84611728565b9050600073ffffffffffffffffffffffffffffffffffffffff168373ffffffffffffffffffffffffffffffffffffffff161415801561232957508273ffffffffffffffffffffffffffffffffffffffff168173ffffffffffffffffffffffffffffffffffffffff1614155b801561233c575061233a81846114b1565b155b1561237e57826040517fa9fbf51f0000000000000000000000000000000000000000000000000000000081526004016123759190612d96565b60405180910390fd5b81156123e057838573ffffffffffffffffffffffffffffffffffffffff168273ffffffffffffffffffffffffffffffffffffffff167f8c5be1e5ebec7d5bd14f71427d1e84f3dd0314c0f7b2291e5b200ac8c7c3b92560405160405180910390a45b505b836004600085815260200190815260200160002060006101000a81548173ffffffffffffffffffffffffffffffffffffffff021916908373ffffffffffffffffffffffffffffffffffffffff16021790555050505050565b61244583838361262d565b6124f957600073ffffffffffffffffffffffffffffffffffffffff168373ffffffffffffffffffffffffffffffffffffffff16036124ba57806040517f7e2732890000000000000000000000000000000000000000000000000000000081526004016124b19190612fed565b60405180910390fd5b81816040517f177e802f0000000000000000000000000000000000000000000000000000000081526004016124f0929190612f20565b60405180910390fd5b505050565b60606000600161250d846126ee565b01905060008167ffffffffffffffff81111561252c5761252b612ad5565b5b6040519080825280601f01601f19166020018201604052801561255e5781602001600182028036833780820191505090505b509050600082602083010190505b6001156125c1578080600190039150507f3031323334353637383961626364656600000000000000000000000000000000600a86061a8153600a85816125b5576125b46133bd565b5b0494506000850361256c575b819350505050919050565b6000634906490660e01b7bffffffffffffffffffffffffffffffffffffffffffffffffffffffff1916827bffffffffffffffffffffffffffffffffffffffffffffffffffffffff19161480612626575061262582612841565b5b9050919050565b60008073ffffffffffffffffffffffffffffffffffffffff168373ffffffffffffffffffffffffffffffffffffffff16141580156126e557508273ffffffffffffffffffffffffffffffffffffffff168473ffffffffffffffffffffffffffffffffffffffff1614806126a657506126a584846114b1565b5b806126e457508273ffffffffffffffffffffffffffffffffffffffff166126cc836117b0565b73ffffffffffffffffffffffffffffffffffffffff16145b5b90509392505050565b600080600090507a184f03e93ff9f4daa797ed6e38ed64bf6a1f010000000000000000831061274c577a184f03e93ff9f4daa797ed6e38ed64bf6a1f0100000000000000008381612742576127416133bd565b5b0492506040810190505b6d04ee2d6d415b85acef81000000008310612789576d04ee2d6d415b85acef8100000000838161277f5761277e6133bd565b5b0492506020810190505b662386f26fc1000083106127b857662386f26fc1000083816127ae576127ad6133bd565b5b0492506010810190505b6305f5e10083106127e1576305f5e10083816127d7576127d66133bd565b5b0492506008810190505b61271083106128065761271083816127fc576127fb6133bd565b5b0492506004810190505b60648310612829576064838161281f5761281e6133bd565b5b0492506002810190505b600a8310612838576001810190505b80915050919050565b60007f80ac58cd000000000000000000000000000000000000000000000000000000007bffffffffffffffffffffffffffffffffffffffffffffffffffffffff1916827bffffffffffffffffffffffffffffffffffffffffffffffffffffffff1916148061290c57507f5b5e139f000000000000000000000000000000000000000000000000000000007bffffffffffffffffffffffffffffffffffffffffffffffffffffffff1916827bffffffffffffffffffffffffffffffffffffffffffffffffffffffff1916145b8061291c575061291b82612923565b5b9050919050565b60007f01ffc9a7000000000000000000000000000000000000000000000000000000007bffffffffffffffffffffffffffffffffffffffffffffffffffffffff1916827bffffffffffffffffffffffffffffffffffffffffffffffffffffffff1916149050919050565b6000604051905090565b600080fd5b600080fd5b60007fffffffff0000000000000000000000000000000000000000000000000000000082169050919050565b6129d6816129a1565b81146129e157600080fd5b50565b6000813590506129f3816129cd565b92915050565b600060208284031215612a0f57612a0e612997565b5b6000612a1d848285016129e4565b91505092915050565b60008115159050919050565b612a3b81612a26565b82525050565b6000602082019050612a566000830184612a32565b92915050565b600073ffffffffffffffffffffffffffffffffffffffff82169050919050565b6000612a8782612a5c565b9050919050565b612a9781612a7c565b8114612aa257600080fd5b50565b600081359050612ab481612a8e565b92915050565b600080fd5b600080fd5b6000601f19601f8301169050919050565b7f4e487b7100000000000000000000000000000000000000000000000000000000600052604160045260246000fd5b612b0d82612ac4565b810181811067ffffffffffffffff82111715612b2c57612b2b612ad5565b5b80604052505050565b6000612b3f61298d565b9050612b4b8282612b04565b919050565b600067ffffffffffffffff821115612b6b57612b6a612ad5565b5b612b7482612ac4565b9050602081019050919050565b82818337600083830152505050565b6000612ba3612b9e84612b50565b612b35565b905082815260208101848484011115612bbf57612bbe612abf565b5b612bca848285612b81565b509392505050565b600082601f830112612be757612be6612aba565b5b8135612bf7848260208601612b90565b91505092915050565b6000819050919050565b612c1381612c00565b8114612c1e57600080fd5b50565b600081359050612c3081612c0a565b92915050565b60008060008060808587031215612c5057612c4f612997565b5b6000612c5e87828801612aa5565b945050602085013567ffffffffffffffff811115612c7f57612c7e61299c565b5b612c8b87828801612bd2565b9350506040612c9c87828801612c21565b9250506060612cad87828801612c21565b91505092959194509250565b600060208284031215612ccf57612cce612997565b5b6000612cdd84828501612c21565b91505092915050565b600081519050919050565b600082825260208201905092915050565b60005b83811015612d20578082015181840152602081019050612d05565b60008484015250505050565b6000612d3782612ce6565b612d418185612cf1565b9350612d51818560208601612d02565b612d5a81612ac4565b840191505092915050565b60006020820190508181036000830152612d7f8184612d2c565b905092915050565b612d9081612a7c565b82525050565b6000602082019050612dab6000830184612d87565b92915050565b60008060408385031215612dc857612dc7612997565b5b6000612dd685828601612aa5565b9250506020612de785828601612c21565b9150509250929050565b600080600060608486031215612e0a57612e09612997565b5b6000612e1886828701612aa5565b9350506020612e2986828701612aa5565b9250506040612e3a86828701612c21565b9150509250925092565b6000819050919050565b612e5781612e44565b8114612e6257600080fd5b50565b600081359050612e7481612e4e565b92915050565b600060208284031215612e9057612e8f612997565b5b6000612e9e84828501612e65565b91505092915050565b612eb081612e44565b82525050565b6000602082019050612ecb6000830184612ea7565b92915050565b60008060408385031215612ee857612ee7612997565b5b6000612ef685828601612c21565b9250506020612f0785828601612c21565b9150509250929050565b612f1a81612c00565b82525050565b6000604082019050612f356000830185612d87565b612f426020830184612f11565b9392505050565b60008060408385031215612f6057612f5f612997565b5b6000612f6e85828601612e65565b9250506020612f7f85828601612aa5565b9150509250929050565b6000606082019050612f9e6000830186612f11565b612fab6020830185612f11565b612fb86040830184612a32565b949350505050565b600060208284031215612fd657612fd5612997565b5b6000612fe484828501612aa5565b91505092915050565b60006020820190506130026000830184612f11565b92915050565b61301181612a26565b811461301c57600080fd5b50565b60008135905061302e81613008565b92915050565b6000806040838503121561304b5761304a612997565b5b600061305985828601612aa5565b925050602061306a8582860161301f565b9150509250929050565b600067ffffffffffffffff82111561308f5761308e612ad5565b5b61309882612ac4565b9050602081019050919050565b60006130b86130b384613074565b612b35565b9050828152602081018484840111156130d4576130d3612abf565b5b6130df848285612b81565b509392505050565b600082601f8301126130fc576130fb612aba565b5b813561310c8482602086016130a5565b91505092915050565b6000806000806080858703121561312f5761312e612997565b5b600061313d87828801612aa5565b945050602061314e87828801612aa5565b935050604061315f87828801612c21565b925050606085013567ffffffffffffffff8111156131805761317f61299c565b5b61318c878288016130e7565b91505092959194509250565b600080604083850312156131af576131ae612997565b5b60006131bd85828601612aa5565b92505060206131ce85828601612aa5565b9150509250929050565b7f4e487b7100000000000000000000000000000000000000000000000000000000600052601160045260246000fd5b600061321282612c00565b91507fffffffffffffffffffffffffffffffffffffffffffffffffffffffffffffffff8203613244576132436131d8565b5b600182019050919050565b60006040820190506132646000830185612f11565b6132716020830184612f11565b9392505050565b7f496e76616c696420746f6b656e00000000000000000000000000000000000000600082015250565b60006132ae600d83612cf1565b91506132b982613278565b602082019050919050565b600060208201905081810360008301526132dd816132a1565b9050919050565b7f4e487b7100000000000000000000000000000000000000000000000000000000600052602260045260246000fd5b6000600282049050600182168061332b57607f821691505b60208210810361333e5761333d6132e4565b5b50919050565b60006060820190506133596000830186612d87565b6133666020830185612f11565b6133736040830184612d87565b949350505050565b600061338682612c00565b915061339183612c00565b925082820261339f81612c00565b915082820484148315176133b6576133b56131d8565b5b5092915050565b7f4e487b7100000000000000000000000000000000000000000000000000000000600052601260045260246000fd5b60006133f782612c00565b915061340283612c00565b925082613412576134116133bd565b5b828204905092915050565b7f4e6f74206f776e65720000000000000000000000000000000000000000000000600082015250565b6000613453600983612cf1565b915061345e8261341d565b602082019050919050565b6000602082019050818103600083015261348281613446565b9050919050565b7f5072696365206d757374206265203e2030000000000000000000000000000000600082015250565b60006134bf601183612cf1565b91506134ca82613489565b602082019050919050565b600060208201905081810360008301526134ee816134b2565b9050919050565b600081905092915050565b50565b60006135106000836134f5565b915061351b82613500565b600082019050919050565b600061353182613503565b9150819050919050565b7f4661696c656420746f2077697468647261770000000000000000000000000000600082015250565b6000613571601283612cf1565b915061357c8261353b565b602082019050919050565b600060208201905081810360008301526135a081613564565b9050919050565b7f4e6f7420666f722073616c650000000000000000000000000000000000000000600082015250565b60006135dd600c83612cf1565b91506135e8826135a7565b602082019050919050565b6000602082019050818103600083015261360c816135d0565b9050919050565b7f496e73756666696369656e742066756e64730000000000000000000000000000600082015250565b6000613649601283612cf1565b915061365482613613565b602082019050919050565b600060208201905081810360008301526136788161363c565b9050919050565b7f4661696c656420746f2073656e64204574686572000000000000000000000000600082015250565b60006136b5601483612cf1565b91506136c08261367f565b602082019050919050565b600060208201905081810360008301526136e4816136a8565b9050919050565b600081905092915050565b600061370182612ce6565b61370b81856136eb565b935061371b818560208601612d02565b80840191505092915050565b600061373382856136f6565b915061373f82846136f6565b91508190509392505050565b60008190508160005260206000209050919050565b60006020601f8301049050919050565b600082821b905092915050565b6000600883026137ad7fffffffffffffffffffffffffffffffffffffffffffffffffffffffffffffffff82613770565b6137b78683613770565b95508019841693508086168417925050509392505050565b6000819050919050565b60006137f46137ef6137ea84612c00565b6137cf565b612c00565b9050919050565b6000819050919050565b61380e836137d9565b61382261381a826137fb565b84845461377d565b825550505050565b600090565b61383761382a565b613842818484613805565b505050565b5b818110156138665761385b60008261382f565b600181019050613848565b5050565b601f8211156138ab5761387c8161374b565b61388584613760565b81016020851015613894578190505b6138a86138a085613760565b830182613847565b50505b505050565b600082821c905092915050565b60006138ce600019846008026138b0565b1980831691505092915050565b60006138e783836138bd565b9150826002028217905092915050565b61390082612ce6565b67ffffffffffffffff81111561391957613918612ad5565b5b6139238254613313565b61392e82828561386a565b600060209050601f831160018114613961576000841561394f578287015190505b61395985826138db565b8655506139c1565b601f19841661396f8661374b565b60005b8281101561399757848901518255600182019150602085019450602081019050613972565b868310156139b457848901516139b0601f8916826138bd565b8355505b6001600288020188555050505b505050505050565b600081519050919050565b600082825260208201905092915050565b60006139f0826139c9565b6139fa81856139d4565b9350613a0a818560208601612d02565b613a1381612ac4565b840191505092915050565b6000608082019050613a336000830187612d87565b613a406020830186612d87565b613a4d6040830185612f11565b8181036060830152613a5f81846139e5565b905095945050505050565b600081519050613a79816129cd565b92915050565b600060208284031215613a9557613a94612997565b5b6000613aa384828501613a6a565b91505092915050565b6000604082019050613ac16000830185612d87565b613ace6020830184612ea7565b939250505056fea2646970667358221220aadafeb1ae529bf907c5f824dd1790f629eb643b215cb644bc64a5fba9fd7fe664736f6c63430008140033",
  "linkReferences": {},
  "deployedLinkReferences": {}
}